{"abi":[{"type":"constructor","inputs":[{"name":"_owner","type":"address","internalType":"address"},{"name":"_asset","type":"address","internalType":"address"},{"name":"_hook","type":"address","internalType":"address"},{"name":"_recipient","type":"address","internalType":"address"}],"stateMutability":"nonpayable"},{"type":"function","name":"BASE_ASSET","inputs":[],"outputs":[{"name":"","type":"address","internalType":"contract ERC20"}],"stateMutability":"view"},{"type":"function","name":"HOOK","inputs":[],"outputs":[{"name":"","type":"address","internalType":"contract WorldIDHook"}],"stateMutability":"view"},{"type":"function","name":"MIN_IDLE_BPS","inputs":[],"outputs":[{"name":"","type":"uint256","internalType":"uint256"}],"stateMutability":"view"},{"type":"function","name":"authority","inputs":[],"outputs":[{"name":"","type":"address","internalType":"contract Authority"}],"stateMutability":"view"},{"type":"function","name":"calculateGrossApy","inputs":[],"outputs":[{"name":"","type":"uint256","internalType":"uint256"}],"stateMutability":"pure"},{"type":"function","name":"feeRecipient","inputs":[],"outputs":[{"name":"","type":"address","internalType":"address"}],"stateMutability":"view"},{"type":"function","name":"gate","inputs":[],"outputs":[{"name":"","type":"address","internalType":"address"}],"stateMutability":"view"},{"type":"function","name":"getLoyaltyMultiplier","inputs":[{"name":"user","type":"address","internalType":"address"}],"outputs":[{"name":"","type":"uint256","internalType":"uint256"}],"stateMutability":"view"},{"type":"function","name":"getRateTiered","inputs":[{"name":"user","type":"address","internalType":"address"}],"outputs":[{"name":"","type":"uint256","internalType":"uint256"}],"stateMutability":"view"},{"type":"function","name":"isPaused","inputs":[],"outputs":[{"name":"","type":"bool","internalType":"bool"}],"stateMutability":"view"},{"type":"function","name":"lastInteraction","inputs":[{"name":"","type":"address","internalType":"address"}],"outputs":[{"name":"","type":"uint256","internalType":"uint256"}],"stateMutability":"view"},{"type":"function","name":"lastRate","inputs":[],"outputs":[{"name":"","type":"uint256","internalType":"uint256"}],"stateMutability":"view"},{"type":"function","name":"loyaltyStart","inputs":[{"name":"","type":"address","internalType":"address"}],"outputs":[{"name":"","type":"uint256","internalType":"uint256"}],"stateMutability":"view"},{"type":"function","name":"owner","inputs":[],"outputs":[{"name":"","type":"address","internalType":"address"}],"stateMutability":"view"},{"type":"function","name":"performanceFeeBps","inputs":[],"outputs":[{"name":"","type":"uint256","internalType":"uint256"}],"stateMutability":"view"},{"type":"function","name":"points","inputs":[{"name":"","type":"address","internalType":"address"}],"outputs":[{"name":"","type":"uint256","internalType":"uint256"}],"stateMutability":"view"},{"type":"function","name":"recordInteraction","inputs":[{"name":"user","type":"address","internalType":"address"}],"outputs":[],"stateMutability":"nonpayable"},{"type":"function","name":"setAuthority","inputs":[{"name":"newAuthority","type":"address","internalType":"contract Authority"}],"outputs":[],"stateMutability":"nonpayable"},{"type":"function","name":"setGate","inputs":[{"name":"_gate","type":"address","internalType":"address"}],"outputs":[],"stateMutability":"nonpayable"},{"type":"function","name":"strategyAllocation","inputs":[{"name":"","type":"address","internalType":"address"}],"outputs":[{"name":"","type":"uint256","internalType":"uint256"}],"stateMutability":"view"},{"type":"function","name":"strategyApy","inputs":[{"name":"","type":"address","internalType":"address"}],"outputs":[{"name":"","type":"uint256","internalType":"uint256"}],"stateMutability":"view"},{"type":"function","name":"togglePause","inputs":[],"outputs":[],"stateMutability":"nonpayable"},{"type":"function","name":"transferOwnership","inputs":[{"name":"newOwner","type":"address","internalType":"address"}],"outputs":[],"stateMutability":"nonpayable"},{"type":"function","name":"updateRate","inputs":[{"name":"newRate","type":"uint256","internalType":"uint256"}],"outputs":[],"stateMutability":"nonpayable"},{"type":"function","name":"updateStrategy","inputs":[{"name":"strategy","type":"address","internalType":"address"},{"name":"allocation","type":"uint256","internalType":"uint256"},{"name":"apy","type":"uint256","internalType":"uint256"}],"outputs":[],"stateMutability":"nonpayable"},{"type":"event","name":"AuthorityUpdated","inputs":[{"name":"user","type":"address","indexed":true,"internalType":"address"},{"name":"newAuthority","type":"address","indexed":true,"internalType":"contract Authority"}],"anonymous":false},{"type":"event","name":"CommonPerformance","inputs":[{"name":"grossYield","type":"uint256","indexed":false,"internalType":"uint256"},{"name":"vedaFee","type":"uint256","indexed":false,"internalType":"uint256"},{"name":"netUserYield","type":"uint256","indexed":false,"internalType":"uint256"}],"anonymous":false},{"type":"event","name":"OwnershipTransferred","inputs":[{"name":"user","type":"address","indexed":true,"internalType":"address"},{"name":"newOwner","type":"address","indexed":true,"internalType":"address"}],"anonymous":false},{"type":"event","name":"RateUpdated","inputs":[{"name":"oldRate","type":"uint256","indexed":false,"internalType":"uint256"},{"name":"newRate","type":"uint256","indexed":false,"internalType":"uint256"}],"anonymous":false}],"bytecode":{"object":"0x60c0604052670de0b6b3a76400006002556109c4600355348015610021575f5ffd5b50604051611ae7380380611ae783398181016040528101906100439190610289565b835f815f5f6101000a81548173ffffffffffffffffffffffffffffffffffffffff021916908373ffffffffffffffffffffffffffffffffffffffff1602179055508060015f6101000a81548173ffffffffffffffffffffffffffffffffffffffff021916908373ffffffffffffffffffffffffffffffffffffffff1602179055508173ffffffffffffffffffffffffffffffffffffffff163373ffffffffffffffffffffffffffffffffffffffff167f8be0079c531659141344cd1fd0a4f28419497f9722a3daafe3b4186f6b6457e060405160405180910390a38073ffffffffffffffffffffffffffffffffffffffff163373ffffffffffffffffffffffffffffffffffffffff167fa3396fd7f6e0a21b50e5089d2da70d5ac0a3bbbd1f617a93f134b7638998019860405160405180910390a350508273ffffffffffffffffffffffffffffffffffffffff1660808173ffffffffffffffffffffffffffffffffffffffff16815250508173ffffffffffffffffffffffffffffffffffffffff1660a08173ffffffffffffffffffffffffffffffffffffffff16815250508060045f6101000a81548173ffffffffffffffffffffffffffffffffffffffff021916908373ffffffffffffffffffffffffffffffffffffffff160217905550505050506102ed565b5f5ffd5b5f73ffffffffffffffffffffffffffffffffffffffff82169050919050565b5f6102588261022f565b9050919050565b6102688161024e565b8114610272575f5ffd5b50565b5f815190506102838161025f565b92915050565b5f5f5f5f608085870312156102a1576102a061022b565b5b5f6102ae87828801610275565b94505060206102bf87828801610275565b93505060406102d087828801610275565b92505060606102e187828801610275565b91505092959194509250565b60805160a0516117d26103155f395f8181610b930152610d2d01525f610e2701526117d25ff3fe608060405234801561000f575f5ffd5b5060043610610170575f3560e01c80638420fe3e116100dc578063bf7e214f11610095578063eeaa29141161006f578063eeaa29141461043a578063f2fde38b14610458578063fb3d5cec14610474578063fd8d68aa146104a457610170565b8063bf7e214f146103f4578063c4ae316814610412578063c55ed10e1461041c57610170565b80638420fe3e1461033057806388315a40146103605780638da5cb5b1461037c578063a54eb2421461039a578063b187bd26146103b8578063b9d4e879146103d657610170565b80634ef2a64f1161012e5780634ef2a64f1461025c5780635ff9dcbd1461028c57806369ea1771146102bc5780637a0ebc88146102d85780637a9e5e4b146102f657806382cac6df1461031257610170565b8062643c93146101745780631044af15146101925780631323afd5146101ae5780631e0c06e6146101de578063358b81661461020e578063469048401461023e575b5f5ffd5b61017c6104c0565b60405161018991906111b2565b60405180910390f35b6101ac60048036038101906101a79190611229565b6104c9565b005b6101c860048036038101906101c39190611229565b6106f9565b6040516101d591906111b2565b60405180910390f35b6101f860048036038101906101f39190611229565b61070e565b60405161020591906111b2565b60405180910390f35b61022860048036038101906102239190611229565b6107fb565b60405161023591906111b2565b60405180910390f35b610246610810565b6040516102539190611263565b60405180910390f35b61027660048036038101906102719190611229565b610835565b60405161028391906111b2565b60405180910390f35b6102a660048036038101906102a19190611229565b61084a565b6040516102b391906111b2565b60405180910390f35b6102d660048036038101906102d191906112a6565b61085f565b005b6102e061095a565b6040516102ed9190611263565b60405180910390f35b610310600480360381019061030b919061130c565b61097f565b005b61031a610b3a565b60405161032791906111b2565b60405180910390f35b61034a60048036038101906103459190611229565b610b40565b60405161035791906111b2565b60405180910390f35b61037a60048036038101906103759190611229565b610c58565b005b610384610d07565b6040516103919190611263565b60405180910390f35b6103a2610d2b565b6040516103af9190611392565b60405180910390f35b6103c0610d4f565b6040516103cd91906113c5565b60405180910390f35b6103de610d62565b6040516103eb91906111b2565b60405180910390f35b6103fc610d68565b60405161040991906113fe565b60405180910390f35b61041a610d8d565b005b610424610e25565b6040516104319190611437565b60405180910390f35b610442610e49565b60405161044f91906111b2565b60405180910390f35b610472600480360381019061046d9190611229565b610e4f565b005b61048e60048036038101906104899190611229565b610f57565b60405161049b91906111b2565b60405180910390f35b6104be60048036038101906104b99190611450565b610f6c565b005b5f610352905090565b60055f9054906101000a900473ffffffffffffffffffffffffffffffffffffffff1673ffffffffffffffffffffffffffffffffffffffff163373ffffffffffffffffffffffffffffffffffffffff16148061056f57505f5f9054906101000a900473ffffffffffffffffffffffffffffffffffffffff1673ffffffffffffffffffffffffffffffffffffffff163373ffffffffffffffffffffffffffffffffffffffff16145b6105ae576040517f08c379a00000000000000000000000000000000000000000000000000000000081526004016105a5906114fa565b60405180910390fd5b4260095f8373ffffffffffffffffffffffffffffffffffffffff1673ffffffffffffffffffffffffffffffffffffffff1681526020019081526020015f20819055505f600a5f8373ffffffffffffffffffffffffffffffffffffffff1673ffffffffffffffffffffffffffffffffffffffff1681526020019081526020015f2054036106775742600a5f8373ffffffffffffffffffffffffffffffffffffffff1673ffffffffffffffffffffffffffffffffffffffff1681526020019081526020015f20819055505b5f6106818261070e565b9050606481678ac7230489e800006106999190611545565b6106a391906115b3565b60085f8473ffffffffffffffffffffffffffffffffffffffff1673ffffffffffffffffffffffffffffffffffffffff1681526020019081526020015f205f8282546106ee91906115e3565b925050819055505050565b6007602052805f5260405f205f915090505481565b5f5f600a5f8473ffffffffffffffffffffffffffffffffffffffff1673ffffffffffffffffffffffffffffffffffffffff1681526020019081526020015f20540361075c57606490506107f6565b5f62015180600a5f8573ffffffffffffffffffffffffffffffffffffffff1673ffffffffffffffffffffffffffffffffffffffff1681526020019081526020015f2054426107aa9190611616565b6107b491906115b3565b9050600781116107c95761012c9150506107f6565b605a8111156107dd5761012c9150506107f6565b601e8111156107f05760c89150506107f6565b60649150505b919050565b6008602052805f5260405f205f915090505481565b60045f9054906101000a900473ffffffffffffffffffffffffffffffffffffffff1681565b6006602052805f5260405f205f915090505481565b6009602052805f5260405f205f915090505481565b61088c335f357fffffffff0000000000000000000000000000000000000000000000000000000016611061565b6108cb576040517f08c379a00000000000000000000000000000000000000000000000000000000081526004016108c2906114fa565b60405180910390fd5b600254811115610915575f600254826108e49190611616565b90505f612710600354836108f89190611545565b61090291906115b3565b905080836109109190611616565b925050505b7fb38780ddde1f073d91c150de2696f3f7085883648ba21cc5ef01029cb21d191660025482604051610948929190611649565b60405180910390a18060028190555050565b60055f9054906101000a900473ffffffffffffffffffffffffffffffffffffffff1681565b5f5f9054906101000a900473ffffffffffffffffffffffffffffffffffffffff1673ffffffffffffffffffffffffffffffffffffffff163373ffffffffffffffffffffffffffffffffffffffff161480610a95575060015f9054906101000a900473ffffffffffffffffffffffffffffffffffffffff1673ffffffffffffffffffffffffffffffffffffffff1663b700961333305f357fffffffff00000000000000000000000000000000000000000000000000000000166040518463ffffffff1660e01b8152600401610a55939291906116aa565b602060405180830381865afa158015610a70573d5f5f3e3d5ffd5b505050506040513d601f19601f82011682018060405250810190610a949190611709565b5b610a9d575f5ffd5b8060015f6101000a81548173ffffffffffffffffffffffffffffffffffffffff021916908373ffffffffffffffffffffffffffffffffffffffff1602179055508073ffffffffffffffffffffffffffffffffffffffff163373ffffffffffffffffffffffffffffffffffffffff167fa3396fd7f6e0a21b50e5089d2da70d5ac0a3bbbd1f617a93f134b7638998019860405160405180910390a350565b60025481565b5f600560149054906101000a900460ff1615610b91576040517f08c379a0000000000000000000000000000000000000000000000000000000008152600401610b889061177e565b60405180910390fd5b7f000000000000000000000000000000000000000000000000000000000000000073ffffffffffffffffffffffffffffffffffffffff1663b9209e33836040518263ffffffff1660e01b8152600401610bea9190611263565b602060405180830381865afa158015610c05573d5f5f3e3d5ffd5b505050506040513d601f19601f82011682018060405250810190610c299190611709565b610c3557600254610c51565b60646078600254610c469190611545565b610c5091906115b3565b5b9050919050565b610c85335f357fffffffff0000000000000000000000000000000000000000000000000000000016611061565b610cc4576040517f08c379a0000000000000000000000000000000000000000000000000000000008152600401610cbb906114fa565b60405180910390fd5b8060055f6101000a81548173ffffffffffffffffffffffffffffffffffffffff021916908373ffffffffffffffffffffffffffffffffffffffff16021790555050565b5f5f9054906101000a900473ffffffffffffffffffffffffffffffffffffffff1681565b7f000000000000000000000000000000000000000000000000000000000000000081565b600560149054906101000a900460ff1681565b60035481565b60015f9054906101000a900473ffffffffffffffffffffffffffffffffffffffff1681565b610dba335f357fffffffff0000000000000000000000000000000000000000000000000000000016611061565b610df9576040517f08c379a0000000000000000000000000000000000000000000000000000000008152600401610df0906114fa565b60405180910390fd5b600560149054906101000a900460ff1615600560146101000a81548160ff021916908315150217905550565b7f000000000000000000000000000000000000000000000000000000000000000081565b6103e881565b610e7c335f357fffffffff0000000000000000000000000000000000000000000000000000000016611061565b610ebb576040517f08c379a0000000000000000000000000000000000000000000000000000000008152600401610eb2906114fa565b60405180910390fd5b805f5f6101000a81548173ffffffffffffffffffffffffffffffffffffffff021916908373ffffffffffffffffffffffffffffffffffffffff1602179055508073ffffffffffffffffffffffffffffffffffffffff163373ffffffffffffffffffffffffffffffffffffffff167f8be0079c531659141344cd1fd0a4f28419497f9722a3daafe3b4186f6b6457e060405160405180910390a350565b600a602052805f5260405f205f915090505481565b610f99335f357fffffffff0000000000000000000000000000000000000000000000000000000016611061565b610fd8576040517f08c379a0000000000000000000000000000000000000000000000000000000008152600401610fcf906114fa565b60405180910390fd5b8160065f8573ffffffffffffffffffffffffffffffffffffffff1673ffffffffffffffffffffffffffffffffffffffff1681526020019081526020015f20819055508060075f8573ffffffffffffffffffffffffffffffffffffffff1673ffffffffffffffffffffffffffffffffffffffff1681526020019081526020015f2081905550505050565b5f5f60015f9054906101000a900473ffffffffffffffffffffffffffffffffffffffff1690505f73ffffffffffffffffffffffffffffffffffffffff168173ffffffffffffffffffffffffffffffffffffffff161415801561113b57508073ffffffffffffffffffffffffffffffffffffffff1663b70096138530866040518463ffffffff1660e01b81526004016110fb939291906116aa565b602060405180830381865afa158015611116573d5f5f3e3d5ffd5b505050506040513d601f19601f8201168201806040525081019061113a9190611709565b5b8061119157505f5f9054906101000a900473ffffffffffffffffffffffffffffffffffffffff1673ffffffffffffffffffffffffffffffffffffffff168473ffffffffffffffffffffffffffffffffffffffff16145b91505092915050565b5f819050919050565b6111ac8161119a565b82525050565b5f6020820190506111c55f8301846111a3565b92915050565b5f5ffd5b5f73ffffffffffffffffffffffffffffffffffffffff82169050919050565b5f6111f8826111cf565b9050919050565b611208816111ee565b8114611212575f5ffd5b50565b5f81359050611223816111ff565b92915050565b5f6020828403121561123e5761123d6111cb565b5b5f61124b84828501611215565b91505092915050565b61125d816111ee565b82525050565b5f6020820190506112765f830184611254565b92915050565b6112858161119a565b811461128f575f5ffd5b50565b5f813590506112a08161127c565b92915050565b5f602082840312156112bb576112ba6111cb565b5b5f6112c884828501611292565b91505092915050565b5f6112db826111ee565b9050919050565b6112eb816112d1565b81146112f5575f5ffd5b50565b5f81359050611306816112e2565b92915050565b5f60208284031215611321576113206111cb565b5b5f61132e848285016112f8565b91505092915050565b5f819050919050565b5f61135a611355611350846111cf565b611337565b6111cf565b9050919050565b5f61136b82611340565b9050919050565b5f61137c82611361565b9050919050565b61138c81611372565b82525050565b5f6020820190506113a55f830184611383565b92915050565b5f8115159050919050565b6113bf816113ab565b82525050565b5f6020820190506113d85f8301846113b6565b92915050565b5f6113e882611361565b9050919050565b6113f8816113de565b82525050565b5f6020820190506114115f8301846113ef565b92915050565b5f61142182611361565b9050919050565b61143181611417565b82525050565b5f60208201905061144a5f830184611428565b92915050565b5f5f5f60608486031215611467576114666111cb565b5b5f61147486828701611215565b935050602061148586828701611292565b925050604061149686828701611292565b9150509250925092565b5f82825260208201905092915050565b7f554e415554484f52495a454400000000000000000000000000000000000000005f82015250565b5f6114e4600c836114a0565b91506114ef826114b0565b602082019050919050565b5f6020820190508181035f830152611511816114d8565b9050919050565b7f4e487b71000000000000000000000000000000000000000000000000000000005f52601160045260245ffd5b5f61154f8261119a565b915061155a8361119a565b92508282026115688161119a565b9150828204841483151761157f5761157e611518565b5b5092915050565b7f4e487b71000000000000000000000000000000000000000000000000000000005f52601260045260245ffd5b5f6115bd8261119a565b91506115c88361119a565b9250826115d8576115d7611586565b5b828204905092915050565b5f6115ed8261119a565b91506115f88361119a565b92508282019050808211156116105761160f611518565b5b92915050565b5f6116208261119a565b915061162b8361119a565b925082820390508181111561164357611642611518565b5b92915050565b5f60408201905061165c5f8301856111a3565b61166960208301846111a3565b9392505050565b5f7fffffffff0000000000000000000000000000000000000000000000000000000082169050919050565b6116a481611670565b82525050565b5f6060820190506116bd5f830186611254565b6116ca6020830185611254565b6116d7604083018461169b565b949350505050565b6116e8816113ab565b81146116f2575f5ffd5b50565b5f81519050611703816116df565b92915050565b5f6020828403121561171e5761171d6111cb565b5b5f61172b848285016116f5565b91505092915050565b7f50415553454400000000000000000000000000000000000000000000000000005f82015250565b5f6117686006836114a0565b915061177382611734565b602082019050919050565b5f6020820190508181035f8301526117958161175c565b905091905056fea26469706673582212201788d5e8996868c3e6341e36d6cd11c720b6fde227d9aba85086eef50cae6bfa64736f6c63430008210033","linkReferences":{}},"methodIdentifiers":{"BASE_ASSET()":"c55ed10e","HOOK()":"a54eb242","MIN_IDLE_BPS()":"eeaa2914","authority()":"bf7e214f","calculateGrossApy()":"00643c93","feeRecipient()":"46904840","gate()":"7a0ebc88","getLoyaltyMultiplier(address)":"1e0c06e6","getRateTiered(address)":"8420fe3e","isPaused()":"b187bd26","lastInteraction(address)":"5ff9dcbd","lastRate()":"82cac6df","loyaltyStart(address)":"fb3d5cec","owner()":"8da5cb5b","performanceFeeBps()":"b9d4e879","points(address)":"358b8166","recordInteraction(address)":"1044af15","setAuthority(address)":"7a9e5e4b","setGate(address)":"88315a40","strategyAllocation(address)":"4ef2a64f","strategyApy(address)":"1323afd5","togglePause()":"c4ae3168","transferOwnership(address)":"f2fde38b","updateRate(uint256)":"69ea1771","updateStrategy(address,uint256,uint256)":"fd8d68aa"},"id":25}