{"abi":[{"type":"constructor","inputs":[{"name":"_vault","type":"address","internalType":"address"}],"stateMutability":"nonpayable"},{"type":"function","name":"QUOTE_BUFFER","inputs":[],"outputs":[{"name":"","type":"uint32","internalType":"uint32"}],"stateMutability":"view"},{"type":"function","name":"SPOKE_POOL","inputs":[],"outputs":[{"name":"","type":"address","internalType":"address"}],"stateMutability":"view"},{"type":"function","name":"vault","inputs":[],"outputs":[{"name":"","type":"address","internalType":"address"}],"stateMutability":"view"},{"type":"function","name":"verify","inputs":[{"name":"target","type":"address","internalType":"address"},{"name":"data","type":"bytes","internalType":"bytes"}],"outputs":[],"stateMutability":"view"}],"bytecode":{"object":"0x60a060405234801561000f575f5ffd5b50604051610935380380610935833981810160405281019061003191906100c9565b8073ffffffffffffffffffffffffffffffffffffffff1660808173ffffffffffffffffffffffffffffffffffffffff1681525050506100f4565b5f5ffd5b5f73ffffffffffffffffffffffffffffffffffffffff82169050919050565b5f6100988261006f565b9050919050565b6100a88161008e565b81146100b2575f5ffd5b50565b5f815190506100c38161009f565b92915050565b5f602082840312156100de576100dd61006b565b5b5f6100eb848285016100b5565b91505092915050565b6080516108226101135f395f81816101d5015261030301526108225ff3fe608060405234801561000f575f5ffd5b506004361061004a575f3560e01c80634a41d1ac1461004e5780638021fef71461006a578063be91724414610088578063fbfa77cf146100a6575b5f5ffd5b610068600480360381019061006391906103e8565b6100c4565b005b6100726102e3565b60405161007f9190610454565b60405180910390f35b6100906102fb565b60405161009d919061048b565b60405180910390f35b6100ae610301565b6040516100bb9190610454565b60405180910390f35b7309aea4b2242abc8bb4bb78d537a67a245a7bec6473ffffffffffffffffffffffffffffffffffffffff168373ffffffffffffffffffffffffffffffffffffffff1614610146576040517f08c379a000000000000000000000000000000000000000000000000000000000815260040161013d906104fe565b60405180910390fd5b636755efd760e01b7bffffffffffffffffffffffffffffffffffffffffffffffffffffffff191682825f9060049261018093929190610524565b9061018b919061059f565b7bffffffffffffffffffffffffffffffffffffffffffffffffffffffff1916036102de575f82826004906024926101c493929190610524565b8101906101d19190610638565b90507f000000000000000000000000000000000000000000000000000000000000000073ffffffffffffffffffffffffffffffffffffffff168173ffffffffffffffffffffffffffffffffffffffff1614610261576040517f08c379a0000000000000000000000000000000000000000000000000000000008152600401610258906106ad565b60405180910390fd5b5f838360a49060c49261027693929190610524565b81019061028391906106f5565b9050610e1081610293919061074d565b63ffffffff164211156102db576040517f08c379a00000000000000000000000000000000000000000000000000000000081526004016102d2906107ce565b60405180910390fd5b50505b505050565b7309aea4b2242abc8bb4bb78d537a67a245a7bec6481565b610e1081565b7f000000000000000000000000000000000000000000000000000000000000000081565b5f5ffd5b5f5ffd5b5f73ffffffffffffffffffffffffffffffffffffffff82169050919050565b5f6103568261032d565b9050919050565b6103668161034c565b8114610370575f5ffd5b50565b5f813590506103818161035d565b92915050565b5f5ffd5b5f5ffd5b5f5ffd5b5f5f83601f8401126103a8576103a7610387565b5b8235905067ffffffffffffffff8111156103c5576103c461038b565b5b6020830191508360018202830111156103e1576103e061038f565b5b9250929050565b5f5f5f604084860312156103ff576103fe610325565b5b5f61040c86828701610373565b935050602084013567ffffffffffffffff81111561042d5761042c610329565b5b61043986828701610393565b92509250509250925092565b61044e8161034c565b82525050565b5f6020820190506104675f830184610445565b92915050565b5f63ffffffff82169050919050565b6104858161046d565b82525050565b5f60208201905061049e5f83018461047c565b92915050565b5f82825260208201905092915050565b7f496e76616c6964205461726765740000000000000000000000000000000000005f82015250565b5f6104e8600e836104a4565b91506104f3826104b4565b602082019050919050565b5f6020820190508181035f830152610515816104dc565b9050919050565b5f5ffd5b5f5ffd5b5f5f858511156105375761053661051c565b5b8386111561054857610547610520565b5b6001850283019150848603905094509492505050565b5f82905092915050565b5f7fffffffff0000000000000000000000000000000000000000000000000000000082169050919050565b5f82821b905092915050565b5f6105aa838361055e565b826105b58135610568565b925060048210156105f5576105f07fffffffff0000000000000000000000000000000000000000000000000000000083600403600802610593565b831692505b505092915050565b5f6106078261032d565b9050919050565b610617816105fd565b8114610621575f5ffd5b50565b5f813590506106328161060e565b92915050565b5f6020828403121561064d5761064c610325565b5b5f61065a84828501610624565b91505092915050565b7f496e76616c696420526563697069656e740000000000000000000000000000005f82015250565b5f6106976011836104a4565b91506106a282610663565b602082019050919050565b5f6020820190508181035f8301526106c48161068b565b9050919050565b6106d48161046d565b81146106de575f5ffd5b50565b5f813590506106ef816106cb565b92915050565b5f6020828403121561070a57610709610325565b5b5f610717848285016106e1565b91505092915050565b7f4e487b71000000000000000000000000000000000000000000000000000000005f52601160045260245ffd5b5f6107578261046d565b91506107628361046d565b9250828201905063ffffffff81111561077e5761077d610720565b5b92915050565b7f51756f74652045787069726564000000000000000000000000000000000000005f82015250565b5f6107b8600d836104a4565b91506107c382610784565b602082019050919050565b5f6020820190508181035f8301526107e5816107ac565b905091905056fea2646970667358221220e40c06a66bb1f7ad5049bd7b642e3f2df42db611a3bfd362fd12ad59fe31d69764736f6c63430008210033","linkReferences":{}},"methodIdentifiers":{"QUOTE_BUFFER()":"be917244","SPOKE_POOL()":"8021fef7","vault()":"fbfa77cf","verify(address,bytes)":"4a41d1ac"},"id":34}