{"abi":[{"type":"function","name":"getDashboard","inputs":[{"name":"user","type":"address","internalType":"address"},{"name":"vault","type":"address","internalType":"address"},{"name":"rates","type":"address","internalType":"address"},{"name":"gate","type":"address","internalType":"address"}],"outputs":[{"name":"d","type":"tuple","internalType":"struct CommonWindow.Dashboard","components":[{"name":"walletBalance","type":"uint256","internalType":"uint256"},{"name":"vaultValueUsd","type":"uint256","internalType":"uint256"},{"name":"grossApy","type":"uint256","internalType":"uint256"},{"name":"netApy","type":"uint256","internalType":"uint256"},{"name":"loyaltyMultiplier","type":"uint256","internalType":"uint256"},{"name":"fuelPoints","type":"uint256","internalType":"uint256"},{"name":"isVerified","type":"bool","internalType":"bool"},{"name":"unlockTimer","type":"uint256","internalType":"uint256"},{"name":"liquidityBuffer","type":"uint256","internalType":"uint256"}]}],"stateMutability":"view"}],"bytecode":{"object":"0x6080604052348015600e575f5ffd5b50610d2e8061001c5f395ff3fe608060405234801561000f575f5ffd5b5060043610610029575f3560e01c8063d46b851e1461002d575b5f5ffd5b6100476004803603810190610042919061089c565b61005d565b60405161005491906109e7565b60405180910390f35b6100656107f9565b5f8490505f8490505f8490508273ffffffffffffffffffffffffffffffffffffffff166338d52e0f6040518163ffffffff1660e01b8152600401602060405180830381865afa1580156100ba573d5f5f3e3d5ffd5b505050506040513d601f19601f820116820180604052508101906100de9190610a3c565b73ffffffffffffffffffffffffffffffffffffffff166370a08231896040518263ffffffff1660e01b81526004016101169190610a76565b602060405180830381865afa158015610131573d5f5f3e3d5ffd5b505050506040513d601f19601f820116820180604052508101906101559190610ab9565b845f0181815250508273ffffffffffffffffffffffffffffffffffffffff166307a2d13a8473ffffffffffffffffffffffffffffffffffffffff166370a082318b6040518263ffffffff1660e01b81526004016101b29190610a76565b602060405180830381865afa1580156101cd573d5f5f3e3d5ffd5b505050506040513d601f19601f820116820180604052508101906101f19190610ab9565b6040518263ffffffff1660e01b815260040161020d9190610af3565b602060405180830381865afa158015610228573d5f5f3e3d5ffd5b505050506040513d601f19601f8201168201806040525081019061024c9190610ab9565b8460200181815250508173ffffffffffffffffffffffffffffffffffffffff1662643c936040518163ffffffff1660e01b8152600401602060405180830381865afa15801561029d573d5f5f3e3d5ffd5b505050506040513d601f19601f820116820180604052508101906102c19190610ab9565b8460400181815250508173ffffffffffffffffffffffffffffffffffffffff16638420fe3e896040518263ffffffff1660e01b81526004016103039190610a76565b602060405180830381865afa15801561031e573d5f5f3e3d5ffd5b505050506040513d601f19601f820116820180604052508101906103429190610ab9565b8460600181815250508173ffffffffffffffffffffffffffffffffffffffff16631e0c06e6896040518263ffffffff1660e01b81526004016103849190610a76565b602060405180830381865afa15801561039f573d5f5f3e3d5ffd5b505050506040513d601f19601f820116820180604052508101906103c39190610ab9565b8460800181815250508173ffffffffffffffffffffffffffffffffffffffff1663358b8166896040518263ffffffff1660e01b81526004016104059190610a76565b602060405180830381865afa158015610420573d5f5f3e3d5ffd5b505050506040513d601f19601f820116820180604052508101906104449190610ab9565b8460a00181815250508173ffffffffffffffffffffffffffffffffffffffff1663a54eb2426040518163ffffffff1660e01b8152600401602060405180830381865afa158015610496573d5f5f3e3d5ffd5b505050506040513d601f19601f820116820180604052508101906104ba9190610b47565b73ffffffffffffffffffffffffffffffffffffffff1663b9209e33896040518263ffffffff1660e01b81526004016104f29190610a76565b602060405180830381865afa15801561050d573d5f5f3e3d5ffd5b505050506040513d601f19601f820116820180604052508101906105319190610b9c565b8460c00190151590811515815250505f8173ffffffffffffffffffffffffffffffffffffffff1663860b6e1c6040518163ffffffff1660e01b8152600401602060405180830381865afa15801561058a573d5f5f3e3d5ffd5b505050506040513d601f19601f820116820180604052508101906105ae9190610ab9565b8273ffffffffffffffffffffffffffffffffffffffff166346b00d048b6040518263ffffffff1660e01b81526004016105e79190610a76565b602060405180830381865afa158015610602573d5f5f3e3d5ffd5b505050506040513d601f19601f820116820180604052508101906106269190610ab9565b6106309190610bf4565b90508042101561064b5742816106469190610c27565b61064d565b5f5b8560e00181815250505f8473ffffffffffffffffffffffffffffffffffffffff166301e1d1146040518163ffffffff1660e01b8152600401602060405180830381865afa1580156106a0573d5f5f3e3d5ffd5b505050506040513d601f19601f820116820180604052508101906106c49190610ab9565b90505f8111156107de575f8573ffffffffffffffffffffffffffffffffffffffff166338d52e0f6040518163ffffffff1660e01b8152600401602060405180830381865afa158015610718573d5f5f3e3d5ffd5b505050506040513d601f19601f8201168201806040525081019061073c9190610a3c565b73ffffffffffffffffffffffffffffffffffffffff166370a08231876040518263ffffffff1660e01b81526004016107749190610a76565b602060405180830381865afa15801561078f573d5f5f3e3d5ffd5b505050506040513d601f19601f820116820180604052508101906107b39190610ab9565b905081612710826107c49190610c5a565b6107ce9190610cc8565b87610100018181525050506107ec565b612710866101000181815250505b5050505050949350505050565b6040518061012001604052805f81526020015f81526020015f81526020015f81526020015f81526020015f81526020015f151581526020015f81526020015f81525090565b5f5ffd5b5f73ffffffffffffffffffffffffffffffffffffffff82169050919050565b5f61086b82610842565b9050919050565b61087b81610861565b8114610885575f5ffd5b50565b5f8135905061089681610872565b92915050565b5f5f5f5f608085870312156108b4576108b361083e565b5b5f6108c187828801610888565b94505060206108d287828801610888565b93505060406108e387828801610888565b92505060606108f487828801610888565b91505092959194509250565b5f819050919050565b61091281610900565b82525050565b5f8115159050919050565b61092c81610918565b82525050565b61012082015f8201516109475f850182610909565b50602082015161095a6020850182610909565b50604082015161096d6040850182610909565b5060608201516109806060850182610909565b5060808201516109936080850182610909565b5060a08201516109a660a0850182610909565b5060c08201516109b960c0850182610923565b5060e08201516109cc60e0850182610909565b506101008201516109e1610100850182610909565b50505050565b5f610120820190506109fb5f830184610932565b92915050565b5f610a0b82610861565b9050919050565b610a1b81610a01565b8114610a25575f5ffd5b50565b5f81519050610a3681610a12565b92915050565b5f60208284031215610a5157610a5061083e565b5b5f610a5e84828501610a28565b91505092915050565b610a7081610861565b82525050565b5f602082019050610a895f830184610a67565b92915050565b610a9881610900565b8114610aa2575f5ffd5b50565b5f81519050610ab381610a8f565b92915050565b5f60208284031215610ace57610acd61083e565b5b5f610adb84828501610aa5565b91505092915050565b610aed81610900565b82525050565b5f602082019050610b065f830184610ae4565b92915050565b5f610b1682610861565b9050919050565b610b2681610b0c565b8114610b30575f5ffd5b50565b5f81519050610b4181610b1d565b92915050565b5f60208284031215610b5c57610b5b61083e565b5b5f610b6984828501610b33565b91505092915050565b610b7b81610918565b8114610b85575f5ffd5b50565b5f81519050610b9681610b72565b92915050565b5f60208284031215610bb157610bb061083e565b5b5f610bbe84828501610b88565b91505092915050565b7f4e487b71000000000000000000000000000000000000000000000000000000005f52601160045260245ffd5b5f610bfe82610900565b9150610c0983610900565b9250828201905080821115610c2157610c20610bc7565b5b92915050565b5f610c3182610900565b9150610c3c83610900565b9250828203905081811115610c5457610c53610bc7565b5b92915050565b5f610c6482610900565b9150610c6f83610900565b9250828202610c7d81610900565b91508282048414831517610c9457610c93610bc7565b5b5092915050565b7f4e487b71000000000000000000000000000000000000000000000000000000005f52601260045260245ffd5b5f610cd282610900565b9150610cdd83610900565b925082610ced57610cec610c9b565b5b82820490509291505056fea26469706673582212206dc2683b7f5b094f16945207a9350f218d9ab68aa63467408040786bbd6af85f64736f6c63430008210033","linkReferences":{}},"methodIdentifiers":{"getDashboard(address,address,address,address)":"d46b851e"},"id":27}