{"abi":[{"type":"function","name":"POOL","inputs":[],"outputs":[{"name":"","type":"address","internalType":"address"}],"stateMutability":"view"},{"type":"function","name":"verify","inputs":[{"name":"target","type":"address","internalType":"address"},{"name":"data","type":"bytes","internalType":"bytes"}],"outputs":[],"stateMutability":"pure"}],"bytecode":{"object":"0x6080604052348015600e575f5ffd5b506105858061001c5f395ff3fe608060405234801561000f575f5ffd5b5060043610610034575f3560e01c80634a41d1ac146100385780637535d24614610054575b5f5ffd5b610052600480360381019061004d91906102a8565b610072565b005b61005c6101cd565b6040516100699190610314565b60405180910390f35b7387870bca3f3fd6335c3f4ce8392d69350b4fa4e273ffffffffffffffffffffffffffffffffffffffff168373ffffffffffffffffffffffffffffffffffffffff16146100f4576040517f08c379a00000000000000000000000000000000000000000000000000000000081526004016100eb90610387565b60405180910390fd5b6328530a4760e01b7bffffffffffffffffffffffffffffffffffffffffffffffffffffffff191682825f9060049261012e939291906103ad565b906101399190610428565b7bffffffffffffffffffffffffffffffffffffffffffffffffffffffff1916036101c8575f82826004908092610171939291906103ad565b81019061017e91906104bc565b905060018160ff16146101c6576040517f08c379a00000000000000000000000000000000000000000000000000000000081526004016101bd90610531565b60405180910390fd5b505b505050565b7387870bca3f3fd6335c3f4ce8392d69350b4fa4e281565b5f5ffd5b5f5ffd5b5f73ffffffffffffffffffffffffffffffffffffffff82169050919050565b5f610216826101ed565b9050919050565b6102268161020c565b8114610230575f5ffd5b50565b5f813590506102418161021d565b92915050565b5f5ffd5b5f5ffd5b5f5ffd5b5f5f83601f84011261026857610267610247565b5b8235905067ffffffffffffffff8111156102855761028461024b565b5b6020830191508360018202830111156102a1576102a061024f565b5b9250929050565b5f5f5f604084860312156102bf576102be6101e5565b5b5f6102cc86828701610233565b935050602084013567ffffffffffffffff8111156102ed576102ec6101e9565b5b6102f986828701610253565b92509250509250925092565b61030e8161020c565b82525050565b5f6020820190506103275f830184610305565b92915050565b5f82825260208201905092915050565b7f496e76616c6964546172676574000000000000000000000000000000000000005f82015250565b5f610371600d8361032d565b915061037c8261033d565b602082019050919050565b5f6020820190508181035f83015261039e81610365565b9050919050565b5f5ffd5b5f5ffd5b5f5f858511156103c0576103bf6103a5565b5b838611156103d1576103d06103a9565b5b6001850283019150848603905094509492505050565b5f82905092915050565b5f7fffffffff0000000000000000000000000000000000000000000000000000000082169050919050565b5f82821b905092915050565b5f61043383836103e7565b8261043e81356103f1565b9250600482101561047e576104797fffffffff000000000000000000000000000000000000000000000000000000008360040360080261041c565b831692505b505092915050565b5f60ff82169050919050565b61049b81610486565b81146104a5575f5ffd5b50565b5f813590506104b681610492565b92915050565b5f602082840312156104d1576104d06101e5565b5b5f6104de848285016104a8565b91505092915050565b7f4d757374557365537461626c65454d6f646500000000000000000000000000005f82015250565b5f61051b60128361032d565b9150610526826104e7565b602082019050919050565b5f6020820190508181035f8301526105488161050f565b905091905056fea26469706673582212208689b65c44ed3fc104282a2a6f52a17fa9e81a2516e1d0e3b675a78f7e0a1d6964736f6c63430008210033","linkReferences":{}},"methodIdentifiers":{"POOL()":"7535d246","verify(address,bytes)":"4a41d1ac"},"id":33}