{"abi":[{"type":"constructor","inputs":[{"name":"_owner","type":"address","internalType":"address"},{"name":"_vault","type":"address","internalType":"address"},{"name":"_accountant","type":"address","internalType":"address"}],"stateMutability":"nonpayable"},{"type":"function","name":"ACCOUNTANT","inputs":[],"outputs":[{"name":"","type":"address","internalType":"contract AccountantWithRateProviders"}],"stateMutability":"view"},{"type":"function","name":"SHARE_LOCK_PERIOD","inputs":[],"outputs":[{"name":"","type":"uint256","internalType":"uint256"}],"stateMutability":"view"},{"type":"function","name":"VAULT","inputs":[],"outputs":[{"name":"","type":"address","internalType":"contract BoringVault"}],"stateMutability":"view"},{"type":"function","name":"authority","inputs":[],"outputs":[{"name":"","type":"address","internalType":"contract Authority"}],"stateMutability":"view"},{"type":"function","name":"deposit","inputs":[{"name":"asset","type":"address","internalType":"contract ERC20"},{"name":"amount","type":"uint256","internalType":"uint256"}],"outputs":[{"name":"shares","type":"uint256","internalType":"uint256"}],"stateMutability":"nonpayable"},{"type":"function","name":"depositTimestamp","inputs":[{"name":"","type":"address","internalType":"address"}],"outputs":[{"name":"","type":"uint256","internalType":"uint256"}],"stateMutability":"view"},{"type":"function","name":"getHumanStatus","inputs":[{"name":"user","type":"address","internalType":"address"}],"outputs":[{"name":"","type":"tuple","internalType":"struct TellerWithMultiAssetSupport.HumanStatus","components":[{"name":"isVerified","type":"bool","internalType":"bool"},{"name":"gasSubsidyActive","type":"bool","internalType":"bool"},{"name":"currentYieldBoost","type":"uint256","internalType":"uint256"}]}],"stateMutability":"view"},{"type":"function","name":"owner","inputs":[],"outputs":[{"name":"","type":"address","internalType":"address"}],"stateMutability":"view"},{"type":"function","name":"ping","inputs":[],"outputs":[],"stateMutability":"nonpayable"},{"type":"function","name":"setAuthority","inputs":[{"name":"newAuthority","type":"address","internalType":"contract Authority"}],"outputs":[],"stateMutability":"nonpayable"},{"type":"function","name":"transferOwnership","inputs":[{"name":"newOwner","type":"address","internalType":"address"}],"outputs":[],"stateMutability":"nonpayable"},{"type":"function","name":"withdraw","inputs":[{"name":"shares","type":"uint256","internalType":"uint256"}],"outputs":[],"stateMutability":"nonpayable"},{"type":"event","name":"AuthorityUpdated","inputs":[{"name":"user","type":"address","indexed":true,"internalType":"address"},{"name":"newAuthority","type":"address","indexed":true,"internalType":"contract Authority"}],"anonymous":false},{"type":"event","name":"OwnershipTransferred","inputs":[{"name":"user","type":"address","indexed":true,"internalType":"address"},{"name":"newOwner","type":"address","indexed":true,"internalType":"address"}],"anonymous":false}],"bytecode":{"object":"0x60c060405234801561000f575f5ffd5b50604051611a0b380380611a0b83398181016040528101906100319190610236565b825f815f5f6101000a81548173ffffffffffffffffffffffffffffffffffffffff021916908373ffffffffffffffffffffffffffffffffffffffff1602179055508060015f6101000a81548173ffffffffffffffffffffffffffffffffffffffff021916908373ffffffffffffffffffffffffffffffffffffffff1602179055508173ffffffffffffffffffffffffffffffffffffffff163373ffffffffffffffffffffffffffffffffffffffff167f8be0079c531659141344cd1fd0a4f28419497f9722a3daafe3b4186f6b6457e060405160405180910390a38073ffffffffffffffffffffffffffffffffffffffff163373ffffffffffffffffffffffffffffffffffffffff167fa3396fd7f6e0a21b50e5089d2da70d5ac0a3bbbd1f617a93f134b7638998019860405160405180910390a350508173ffffffffffffffffffffffffffffffffffffffff1660808173ffffffffffffffffffffffffffffffffffffffff16815250508073ffffffffffffffffffffffffffffffffffffffff1660a08173ffffffffffffffffffffffffffffffffffffffff1681525050505050610286565b5f5ffd5b5f73ffffffffffffffffffffffffffffffffffffffff82169050919050565b5f610205826101dc565b9050919050565b610215816101fb565b811461021f575f5ffd5b50565b5f815190506102308161020c565b92915050565b5f5f5f6060848603121561024d5761024c6101d8565b5b5f61025a86828701610222565b935050602061026b86828701610222565b925050604061027c86828701610222565b9150509250925092565b60805160a0516117256102e65f395f81816104210152818161068401528181610719015281816108580152818161099b0152610be501525f81816102ca01528181610307015281816103e70152818161056801526105b401526117255ff3fe608060405234801561000f575f5ffd5b50600436106100b2575f3560e01c80637a9e5e4b1161006f5780637a9e5e4b1461018a578063860b6e1c146101a65780638b9d2940146101c45780638da5cb5b146101e2578063bf7e214f14610200578063f2fde38b1461021e576100b2565b80632e1a7d4d146100b6578063411557d1146100d257806346b00d04146100f057806347e7ef24146101205780635959ec81146101505780635c36b18614610180575b5f5ffd5b6100d060048036038101906100cb9190610fbe565b61023a565b005b6100da6103e5565b6040516100e79190611063565b60405180910390f35b61010a600480360381019061010591906110b7565b610409565b60405161011791906110f1565b60405180910390f35b61013a60048036038101906101359190611145565b61041e565b60405161014791906110f1565b60405180910390f35b61016a600480360381019061016591906110b7565b61070e565b60405161017791906111ec565b60405180910390f35b610188610856565b005b6101a4600480360381019061019f9190611240565b610a21565b005b6101ae610bdc565b6040516101bb91906110f1565b60405180910390f35b6101cc610be3565b6040516101d9919061128b565b60405180910390f35b6101ea610c07565b6040516101f791906112b3565b60405180910390f35b610208610c2b565b60405161021591906112ec565b60405180910390f35b610238600480360381019061023391906110b7565b610c50565b005b6201518060025f3373ffffffffffffffffffffffffffffffffffffffff1673ffffffffffffffffffffffffffffffffffffffff1681526020019081526020015f20546102869190611332565b4210156102c8576040517f08c379a00000000000000000000000000000000000000000000000000000000081526004016102bf906113bf565b60405180910390fd5b7f000000000000000000000000000000000000000000000000000000000000000073ffffffffffffffffffffffffffffffffffffffff166318457e61337f000000000000000000000000000000000000000000000000000000000000000073ffffffffffffffffffffffffffffffffffffffff166338d52e0f6040518163ffffffff1660e01b8152600401602060405180830381865afa15801561036e573d5f5f3e3d5ffd5b505050506040513d601f19601f8201168201806040525081019061039291906113f1565b8433866040518663ffffffff1660e01b81526004016103b595949392919061143c565b5f604051808303815f87803b1580156103cc575f5ffd5b505af11580156103de573d5f5f3e3d5ffd5b5050505050565b7f000000000000000000000000000000000000000000000000000000000000000081565b6002602052805f5260405f205f915090505481565b5f7f000000000000000000000000000000000000000000000000000000000000000073ffffffffffffffffffffffffffffffffffffffff1663a54eb2426040518163ffffffff1660e01b8152600401602060405180830381865afa158015610488573d5f5f3e3d5ffd5b505050506040513d601f19601f820116820180604052508101906104ac91906114c8565b73ffffffffffffffffffffffffffffffffffffffff1663b9209e33336040518263ffffffff1660e01b81526004016104e491906112b3565b602060405180830381865afa1580156104ff573d5f5f3e3d5ffd5b505050506040513d601f19601f82011682018060405250810190610523919061151d565b610562576040517f08c379a000000000000000000000000000000000000000000000000000000000815260040161055990611592565b60405180910390fd5b6105af337f0000000000000000000000000000000000000000000000000000000000000000848673ffffffffffffffffffffffffffffffffffffffff16610d58909392919063ffffffff16565b8190507f000000000000000000000000000000000000000000000000000000000000000073ffffffffffffffffffffffffffffffffffffffff166339d6ba3233858533866040518663ffffffff1660e01b815260040161061395949392919061143c565b5f604051808303815f87803b15801561062a575f5ffd5b505af115801561063c573d5f5f3e3d5ffd5b505050504260025f3373ffffffffffffffffffffffffffffffffffffffff1673ffffffffffffffffffffffffffffffffffffffff1681526020019081526020015f20819055507f000000000000000000000000000000000000000000000000000000000000000073ffffffffffffffffffffffffffffffffffffffff16631044af15336040518263ffffffff1660e01b81526004016106db91906112b3565b5f604051808303815f87803b1580156106f2575f5ffd5b505af1158015610704573d5f5f3e3d5ffd5b5050505092915050565b610716610f65565b5f7f000000000000000000000000000000000000000000000000000000000000000073ffffffffffffffffffffffffffffffffffffffff1663a54eb2426040518163ffffffff1660e01b8152600401602060405180830381865afa158015610780573d5f5f3e3d5ffd5b505050506040513d601f19601f820116820180604052508101906107a491906114c8565b73ffffffffffffffffffffffffffffffffffffffff1663b9209e33846040518263ffffffff1660e01b81526004016107dc91906112b3565b602060405180830381865afa1580156107f7573d5f5f3e3d5ffd5b505050506040513d601f19601f8201168201806040525081019061081b919061151d565b905060405180606001604052808215158152602001821515815260200182610843575f610847565b6107d05b61ffff16815250915050919050565b7f000000000000000000000000000000000000000000000000000000000000000073ffffffffffffffffffffffffffffffffffffffff1663a54eb2426040518163ffffffff1660e01b8152600401602060405180830381865afa1580156108bf573d5f5f3e3d5ffd5b505050506040513d601f19601f820116820180604052508101906108e391906114c8565b73ffffffffffffffffffffffffffffffffffffffff1663b9209e33336040518263ffffffff1660e01b815260040161091b91906112b3565b602060405180830381865afa158015610936573d5f5f3e3d5ffd5b505050506040513d601f19601f8201168201806040525081019061095a919061151d565b610999576040517f08c379a000000000000000000000000000000000000000000000000000000000815260040161099090611592565b60405180910390fd5b7f000000000000000000000000000000000000000000000000000000000000000073ffffffffffffffffffffffffffffffffffffffff16631044af15336040518263ffffffff1660e01b81526004016109f291906112b3565b5f604051808303815f87803b158015610a09575f5ffd5b505af1158015610a1b573d5f5f3e3d5ffd5b50505050565b5f5f9054906101000a900473ffffffffffffffffffffffffffffffffffffffff1673ffffffffffffffffffffffffffffffffffffffff163373ffffffffffffffffffffffffffffffffffffffff161480610b37575060015f9054906101000a900473ffffffffffffffffffffffffffffffffffffffff1673ffffffffffffffffffffffffffffffffffffffff1663b700961333305f357fffffffff00000000000000000000000000000000000000000000000000000000166040518463ffffffff1660e01b8152600401610af7939291906115ea565b602060405180830381865afa158015610b12573d5f5f3e3d5ffd5b505050506040513d601f19601f82011682018060405250810190610b36919061151d565b5b610b3f575f5ffd5b8060015f6101000a81548173ffffffffffffffffffffffffffffffffffffffff021916908373ffffffffffffffffffffffffffffffffffffffff1602179055508073ffffffffffffffffffffffffffffffffffffffff163373ffffffffffffffffffffffffffffffffffffffff167fa3396fd7f6e0a21b50e5089d2da70d5ac0a3bbbd1f617a93f134b7638998019860405160405180910390a350565b6201518081565b7f000000000000000000000000000000000000000000000000000000000000000081565b5f5f9054906101000a900473ffffffffffffffffffffffffffffffffffffffff1681565b60015f9054906101000a900473ffffffffffffffffffffffffffffffffffffffff1681565b610c7d335f357fffffffff0000000000000000000000000000000000000000000000000000000016610e2c565b610cbc576040517f08c379a0000000000000000000000000000000000000000000000000000000008152600401610cb390611669565b60405180910390fd5b805f5f6101000a81548173ffffffffffffffffffffffffffffffffffffffff021916908373ffffffffffffffffffffffffffffffffffffffff1602179055508073ffffffffffffffffffffffffffffffffffffffff163373ffffffffffffffffffffffffffffffffffffffff167f8be0079c531659141344cd1fd0a4f28419497f9722a3daafe3b4186f6b6457e060405160405180910390a350565b5f6040517f23b872dd00000000000000000000000000000000000000000000000000000000815273ffffffffffffffffffffffffffffffffffffffff8516600482015273ffffffffffffffffffffffffffffffffffffffff8416602482015282604482015260205f6064835f8a5af1915081601f3d1160015f511416151615610de4573d863b15171591505b5080610e25576040517f08c379a0000000000000000000000000000000000000000000000000000000008152600401610e1c906116d1565b60405180910390fd5b5050505050565b5f5f60015f9054906101000a900473ffffffffffffffffffffffffffffffffffffffff1690505f73ffffffffffffffffffffffffffffffffffffffff168173ffffffffffffffffffffffffffffffffffffffff1614158015610f0657508073ffffffffffffffffffffffffffffffffffffffff1663b70096138530866040518463ffffffff1660e01b8152600401610ec6939291906115ea565b602060405180830381865afa158015610ee1573d5f5f3e3d5ffd5b505050506040513d601f19601f82011682018060405250810190610f05919061151d565b5b80610f5c57505f5f9054906101000a900473ffffffffffffffffffffffffffffffffffffffff1673ffffffffffffffffffffffffffffffffffffffff168473ffffffffffffffffffffffffffffffffffffffff16145b91505092915050565b60405180606001604052805f151581526020015f151581526020015f81525090565b5f5ffd5b5f819050919050565b610f9d81610f8b565b8114610fa7575f5ffd5b50565b5f81359050610fb881610f94565b92915050565b5f60208284031215610fd357610fd2610f87565b5b5f610fe084828501610faa565b91505092915050565b5f73ffffffffffffffffffffffffffffffffffffffff82169050919050565b5f819050919050565b5f61102b61102661102184610fe9565b611008565b610fe9565b9050919050565b5f61103c82611011565b9050919050565b5f61104d82611032565b9050919050565b61105d81611043565b82525050565b5f6020820190506110765f830184611054565b92915050565b5f61108682610fe9565b9050919050565b6110968161107c565b81146110a0575f5ffd5b50565b5f813590506110b18161108d565b92915050565b5f602082840312156110cc576110cb610f87565b5b5f6110d9848285016110a3565b91505092915050565b6110eb81610f8b565b82525050565b5f6020820190506111045f8301846110e2565b92915050565b5f6111148261107c565b9050919050565b6111248161110a565b811461112e575f5ffd5b50565b5f8135905061113f8161111b565b92915050565b5f5f6040838503121561115b5761115a610f87565b5b5f61116885828601611131565b925050602061117985828601610faa565b9150509250929050565b5f8115159050919050565b61119781611183565b82525050565b6111a681610f8b565b82525050565b606082015f8201516111c05f85018261118e565b5060208201516111d3602085018261118e565b5060408201516111e6604085018261119d565b50505050565b5f6060820190506111ff5f8301846111ac565b92915050565b5f61120f8261107c565b9050919050565b61121f81611205565b8114611229575f5ffd5b50565b5f8135905061123a81611216565b92915050565b5f6020828403121561125557611254610f87565b5b5f6112628482850161122c565b91505092915050565b5f61127582611032565b9050919050565b6112858161126b565b82525050565b5f60208201905061129e5f83018461127c565b92915050565b6112ad8161107c565b82525050565b5f6020820190506112c65f8301846112a4565b92915050565b5f6112d682611032565b9050919050565b6112e6816112cc565b82525050565b5f6020820190506112ff5f8301846112dd565b92915050565b7f4e487b71000000000000000000000000000000000000000000000000000000005f52601160045260245ffd5b5f61133c82610f8b565b915061134783610f8b565b925082820190508082111561135f5761135e611305565b5b92915050565b5f82825260208201905092915050565b7f4c4f434b454400000000000000000000000000000000000000000000000000005f82015250565b5f6113a9600683611365565b91506113b482611375565b602082019050919050565b5f6020820190508181035f8301526113d68161139d565b9050919050565b5f815190506113eb8161111b565b92915050565b5f6020828403121561140657611405610f87565b5b5f611413848285016113dd565b91505092915050565b5f61142682611032565b9050919050565b6114368161141c565b82525050565b5f60a08201905061144f5f8301886112a4565b61145c602083018761142d565b61146960408301866110e2565b61147660608301856112a4565b61148360808301846110e2565b9695505050505050565b5f6114978261107c565b9050919050565b6114a78161148d565b81146114b1575f5ffd5b50565b5f815190506114c28161149e565b92915050565b5f602082840312156114dd576114dc610f87565b5b5f6114ea848285016114b4565b91505092915050565b6114fc81611183565b8114611506575f5ffd5b50565b5f81519050611517816114f3565b92915050565b5f6020828403121561153257611531610f87565b5b5f61153f84828501611509565b91505092915050565b7f4e6f7448756d616e0000000000000000000000000000000000000000000000005f82015250565b5f61157c600883611365565b915061158782611548565b602082019050919050565b5f6020820190508181035f8301526115a981611570565b9050919050565b5f7fffffffff0000000000000000000000000000000000000000000000000000000082169050919050565b6115e4816115b0565b82525050565b5f6060820190506115fd5f8301866112a4565b61160a60208301856112a4565b61161760408301846115db565b949350505050565b7f554e415554484f52495a454400000000000000000000000000000000000000005f82015250565b5f611653600c83611365565b915061165e8261161f565b602082019050919050565b5f6020820190508181035f83015261168081611647565b9050919050565b7f5452414e534645525f46524f4d5f4641494c45440000000000000000000000005f82015250565b5f6116bb601483611365565b91506116c682611687565b602082019050919050565b5f6020820190508181035f8301526116e8816116af565b905091905056fea264697066735822122012b5fcdb824a39447dc7beb70c567275344c70ae39df6ef6629b58a6ce3a44e264736f6c63430008210033","linkReferences":{}},"methodIdentifiers":{"ACCOUNTANT()":"8b9d2940","SHARE_LOCK_PERIOD()":"860b6e1c","VAULT()":"411557d1","authority()":"bf7e214f","deposit(address,uint256)":"47e7ef24","depositTimestamp(address)":"46b00d04","getHumanStatus(address)":"5959ec81","owner()":"8da5cb5b","ping()":"5c36b186","setAuthority(address)":"7a9e5e4b","transferOwnership(address)":"f2fde38b","withdraw(uint256)":"2e1a7d4d"},"id":26}