{"abi":[{"type":"function","name":"exactInput","inputs":[{"name":"path","type":"bytes","internalType":"bytes"},{"name":"recipient","type":"address","internalType":"address"},{"name":"amountIn","type":"uint256","internalType":"uint256"},{"name":"amountOutMinimum","type":"uint256","internalType":"uint256"}],"outputs":[{"name":"","type":"bytes","internalType":"bytes"}],"stateMutability":"pure"}],"bytecode":{"object":"0x6080604052348015600e575f5ffd5b506104078061001c5f395ff3fe608060405234801561000f575f5ffd5b5060043610610029575f3560e01c806311b69c461461002d575b5f5ffd5b61004760048036038101906100429190610269565b61005d565b6040516100549190610349565b60405180910390f35b6060848484846040516020016100769493929190610387565b6040516020818303038152906040529050949350505050565b5f604051905090565b5f5ffd5b5f5ffd5b5f5ffd5b5f5ffd5b5f601f19601f8301169050919050565b7f4e487b71000000000000000000000000000000000000000000000000000000005f52604160045260245ffd5b6100ee826100a8565b810181811067ffffffffffffffff8211171561010d5761010c6100b8565b5b80604052505050565b5f61011f61008f565b905061012b82826100e5565b919050565b5f67ffffffffffffffff82111561014a576101496100b8565b5b610153826100a8565b9050602081019050919050565b828183375f83830152505050565b5f61018061017b84610130565b610116565b90508281526020810184848401111561019c5761019b6100a4565b5b6101a7848285610160565b509392505050565b5f82601f8301126101c3576101c26100a0565b5b81356101d384826020860161016e565b91505092915050565b5f73ffffffffffffffffffffffffffffffffffffffff82169050919050565b5f610205826101dc565b9050919050565b610215816101fb565b811461021f575f5ffd5b50565b5f813590506102308161020c565b92915050565b5f819050919050565b61024881610236565b8114610252575f5ffd5b50565b5f813590506102638161023f565b92915050565b5f5f5f5f6080858703121561028157610280610098565b5b5f85013567ffffffffffffffff81111561029e5761029d61009c565b5b6102aa878288016101af565b94505060206102bb87828801610222565b93505060406102cc87828801610255565b92505060606102dd87828801610255565b91505092959194509250565b5f81519050919050565b5f82825260208201905092915050565b8281835e5f83830152505050565b5f61031b826102e9565b61032581856102f3565b9350610335818560208601610303565b61033e816100a8565b840191505092915050565b5f6020820190508181035f8301526103618184610311565b905092915050565b610372816101fb565b82525050565b61038181610236565b82525050565b5f6080820190508181035f83015261039f8187610311565b90506103ae6020830186610369565b6103bb6040830185610378565b6103c86060830184610378565b9594505050505056fea26469706673582212202772afeacf13f6d94eadb00ebe2af5db689fddcb476c5ee5dc12761b1be2b17a64736f6c63430008210033","linkReferences":{}},"methodIdentifiers":{"exactInput(bytes,address,uint256,uint256)":"11b69c46"},"id":36}