{"abi":[{"type":"constructor","inputs":[{"name":"_owner","type":"address","internalType":"address"},{"name":"_name","type":"string","internalType":"string"},{"name":"_symbol","type":"string","internalType":"string"},{"name":"_asset","type":"address","internalType":"contract ERC20"}],"stateMutability":"nonpayable"},{"type":"function","name":"DOMAIN_SEPARATOR","inputs":[],"outputs":[{"name":"","type":"bytes32","internalType":"bytes32"}],"stateMutability":"view"},{"type":"function","name":"allowance","inputs":[{"name":"","type":"address","internalType":"address"},{"name":"","type":"address","internalType":"address"}],"outputs":[{"name":"","type":"uint256","internalType":"uint256"}],"stateMutability":"view"},{"type":"function","name":"approve","inputs":[{"name":"spender","type":"address","internalType":"address"},{"name":"amount","type":"uint256","internalType":"uint256"}],"outputs":[{"name":"","type":"bool","internalType":"bool"}],"stateMutability":"nonpayable"},{"type":"function","name":"asset","inputs":[],"outputs":[{"name":"","type":"address","internalType":"contract ERC20"}],"stateMutability":"view"},{"type":"function","name":"authority","inputs":[],"outputs":[{"name":"","type":"address","internalType":"contract Authority"}],"stateMutability":"view"},{"type":"function","name":"balanceOf","inputs":[{"name":"","type":"address","internalType":"address"}],"outputs":[{"name":"","type":"uint256","internalType":"uint256"}],"stateMutability":"view"},{"type":"function","name":"convertToAssets","inputs":[{"name":"shares","type":"uint256","internalType":"uint256"}],"outputs":[{"name":"","type":"uint256","internalType":"uint256"}],"stateMutability":"view"},{"type":"function","name":"convertToShares","inputs":[{"name":"assets","type":"uint256","internalType":"uint256"}],"outputs":[{"name":"","type":"uint256","internalType":"uint256"}],"stateMutability":"view"},{"type":"function","name":"decimals","inputs":[],"outputs":[{"name":"","type":"uint8","internalType":"uint8"}],"stateMutability":"view"},{"type":"function","name":"deposit","inputs":[{"name":"assets","type":"uint256","internalType":"uint256"},{"name":"receiver","type":"address","internalType":"address"}],"outputs":[{"name":"shares","type":"uint256","internalType":"uint256"}],"stateMutability":"nonpayable"},{"type":"function","name":"enter","inputs":[{"name":"","type":"address","internalType":"address"},{"name":"","type":"address","internalType":"contract ERC20"},{"name":"","type":"uint256","internalType":"uint256"},{"name":"to","type":"address","internalType":"address"},{"name":"shares","type":"uint256","internalType":"uint256"}],"outputs":[],"stateMutability":"nonpayable"},{"type":"function","name":"exit","inputs":[{"name":"to","type":"address","internalType":"address"},{"name":"_asset","type":"address","internalType":"contract ERC20"},{"name":"amount","type":"uint256","internalType":"uint256"},{"name":"from","type":"address","internalType":"address"},{"name":"shares","type":"uint256","internalType":"uint256"}],"outputs":[],"stateMutability":"nonpayable"},{"type":"function","name":"manage","inputs":[{"name":"target","type":"address","internalType":"address"},{"name":"data","type":"bytes","internalType":"bytes"},{"name":"value","type":"uint256","internalType":"uint256"}],"outputs":[{"name":"","type":"bytes","internalType":"bytes"}],"stateMutability":"nonpayable"},{"type":"function","name":"maxDeposit","inputs":[{"name":"","type":"address","internalType":"address"}],"outputs":[{"name":"","type":"uint256","internalType":"uint256"}],"stateMutability":"view"},{"type":"function","name":"maxMint","inputs":[{"name":"","type":"address","internalType":"address"}],"outputs":[{"name":"","type":"uint256","internalType":"uint256"}],"stateMutability":"view"},{"type":"function","name":"maxRedeem","inputs":[{"name":"owner","type":"address","internalType":"address"}],"outputs":[{"name":"","type":"uint256","internalType":"uint256"}],"stateMutability":"view"},{"type":"function","name":"maxWithdraw","inputs":[{"name":"owner","type":"address","internalType":"address"}],"outputs":[{"name":"","type":"uint256","internalType":"uint256"}],"stateMutability":"view"},{"type":"function","name":"mint","inputs":[{"name":"shares","type":"uint256","internalType":"uint256"},{"name":"receiver","type":"address","internalType":"address"}],"outputs":[{"name":"assets","type":"uint256","internalType":"uint256"}],"stateMutability":"nonpayable"},{"type":"function","name":"name","inputs":[],"outputs":[{"name":"","type":"string","internalType":"string"}],"stateMutability":"view"},{"type":"function","name":"nonces","inputs":[{"name":"","type":"address","internalType":"address"}],"outputs":[{"name":"","type":"uint256","internalType":"uint256"}],"stateMutability":"view"},{"type":"function","name":"owner","inputs":[],"outputs":[{"name":"","type":"address","internalType":"address"}],"stateMutability":"view"},{"type":"function","name":"permit","inputs":[{"name":"owner","type":"address","internalType":"address"},{"name":"spender","type":"address","internalType":"address"},{"name":"value","type":"uint256","internalType":"uint256"},{"name":"deadline","type":"uint256","internalType":"uint256"},{"name":"v","type":"uint8","internalType":"uint8"},{"name":"r","type":"bytes32","internalType":"bytes32"},{"name":"s","type":"bytes32","internalType":"bytes32"}],"outputs":[],"stateMutability":"nonpayable"},{"type":"function","name":"previewDeposit","inputs":[{"name":"assets","type":"uint256","internalType":"uint256"}],"outputs":[{"name":"","type":"uint256","internalType":"uint256"}],"stateMutability":"view"},{"type":"function","name":"previewMint","inputs":[{"name":"shares","type":"uint256","internalType":"uint256"}],"outputs":[{"name":"","type":"uint256","internalType":"uint256"}],"stateMutability":"view"},{"type":"function","name":"previewRedeem","inputs":[{"name":"shares","type":"uint256","internalType":"uint256"}],"outputs":[{"name":"","type":"uint256","internalType":"uint256"}],"stateMutability":"view"},{"type":"function","name":"previewWithdraw","inputs":[{"name":"assets","type":"uint256","internalType":"uint256"}],"outputs":[{"name":"","type":"uint256","internalType":"uint256"}],"stateMutability":"view"},{"type":"function","name":"redeem","inputs":[{"name":"shares","type":"uint256","internalType":"uint256"},{"name":"receiver","type":"address","internalType":"address"},{"name":"owner","type":"address","internalType":"address"}],"outputs":[{"name":"assets","type":"uint256","internalType":"uint256"}],"stateMutability":"nonpayable"},{"type":"function","name":"setAuthority","inputs":[{"name":"newAuthority","type":"address","internalType":"contract Authority"}],"outputs":[],"stateMutability":"nonpayable"},{"type":"function","name":"setStrategy","inputs":[{"name":"_strategy","type":"address","internalType":"address"}],"outputs":[],"stateMutability":"nonpayable"},{"type":"function","name":"strategy","inputs":[],"outputs":[{"name":"","type":"address","internalType":"address"}],"stateMutability":"view"},{"type":"function","name":"symbol","inputs":[],"outputs":[{"name":"","type":"string","internalType":"string"}],"stateMutability":"view"},{"type":"function","name":"totalAssets","inputs":[],"outputs":[{"name":"","type":"uint256","internalType":"uint256"}],"stateMutability":"view"},{"type":"function","name":"totalSupply","inputs":[],"outputs":[{"name":"","type":"uint256","internalType":"uint256"}],"stateMutability":"view"},{"type":"function","name":"transfer","inputs":[{"name":"to","type":"address","internalType":"address"},{"name":"amount","type":"uint256","internalType":"uint256"}],"outputs":[{"name":"","type":"bool","internalType":"bool"}],"stateMutability":"nonpayable"},{"type":"function","name":"transferFrom","inputs":[{"name":"from","type":"address","internalType":"address"},{"name":"to","type":"address","internalType":"address"},{"name":"amount","type":"uint256","internalType":"uint256"}],"outputs":[{"name":"","type":"bool","internalType":"bool"}],"stateMutability":"nonpayable"},{"type":"function","name":"transferOwnership","inputs":[{"name":"newOwner","type":"address","internalType":"address"}],"outputs":[],"stateMutability":"nonpayable"},{"type":"function","name":"withdraw","inputs":[{"name":"assets","type":"uint256","internalType":"uint256"},{"name":"receiver","type":"address","internalType":"address"},{"name":"owner","type":"address","internalType":"address"}],"outputs":[{"name":"shares","type":"uint256","internalType":"uint256"}],"stateMutability":"nonpayable"},{"type":"event","name":"Approval","inputs":[{"name":"owner","type":"address","indexed":true,"internalType":"address"},{"name":"spender","type":"address","indexed":true,"internalType":"address"},{"name":"amount","type":"uint256","indexed":false,"internalType":"uint256"}],"anonymous":false},{"type":"event","name":"AuthorityUpdated","inputs":[{"name":"user","type":"address","indexed":true,"internalType":"address"},{"name":"newAuthority","type":"address","indexed":true,"internalType":"contract Authority"}],"anonymous":false},{"type":"event","name":"Deposit","inputs":[{"name":"caller","type":"address","indexed":true,"internalType":"address"},{"name":"owner","type":"address","indexed":true,"internalType":"address"},{"name":"assets","type":"uint256","indexed":false,"internalType":"uint256"},{"name":"shares","type":"uint256","indexed":false,"internalType":"uint256"}],"anonymous":false},{"type":"event","name":"OwnershipTransferred","inputs":[{"name":"user","type":"address","indexed":true,"internalType":"address"},{"name":"newOwner","type":"address","indexed":true,"internalType":"address"}],"anonymous":false},{"type":"event","name":"Transfer","inputs":[{"name":"from","type":"address","indexed":true,"internalType":"address"},{"name":"to","type":"address","indexed":true,"internalType":"address"},{"name":"amount","type":"uint256","indexed":false,"internalType":"uint256"}],"anonymous":false},{"type":"event","name":"Withdraw","inputs":[{"name":"caller","type":"address","indexed":true,"internalType":"address"},{"name":"receiver","type":"address","indexed":true,"internalType":"address"},{"name":"owner","type":"address","indexed":true,"internalType":"address"},{"name":"assets","type":"uint256","indexed":false,"internalType":"uint256"},{"name":"shares","type":"uint256","indexed":false,"internalType":"uint256"}],"anonymous":false},{"type":"error","name":"BoringVault__OnlyStrategy","inputs":[]}],"bytecode":{"object":"0x610100604052348015610010575f5ffd5b50604051614071380380614071833981810160405281019061003291906104d5565b835f82858581818473ffffffffffffffffffffffffffffffffffffffff1663313ce5676040518163ffffffff1660e01b8152600401602060405180830381865afa158015610082573d5f5f3e3d5ffd5b505050506040513d601f19601f820116820180604052508101906100a691906105a7565b825f90816100b491906107f3565b5081600190816100c491906107f3565b508060ff1660808160ff16815250504660a081815250506100e961026960201b60201c565b60c081815250505050508273ffffffffffffffffffffffffffffffffffffffff1660e08173ffffffffffffffffffffffffffffffffffffffff16815250505050508160065f6101000a81548173ffffffffffffffffffffffffffffffffffffffff021916908373ffffffffffffffffffffffffffffffffffffffff1602179055508060075f6101000a81548173ffffffffffffffffffffffffffffffffffffffff021916908373ffffffffffffffffffffffffffffffffffffffff1602179055508173ffffffffffffffffffffffffffffffffffffffff163373ffffffffffffffffffffffffffffffffffffffff167f8be0079c531659141344cd1fd0a4f28419497f9722a3daafe3b4186f6b6457e060405160405180910390a38073ffffffffffffffffffffffffffffffffffffffff163373ffffffffffffffffffffffffffffffffffffffff167fa3396fd7f6e0a21b50e5089d2da70d5ac0a3bbbd1f617a93f134b7638998019860405160405180910390a35050505050506109fb565b5f7f8b73c3c69bb8fe3d512ecc4cf759cc79239f7b179b0ffacaa9a75d522b39400f5f604051610299919061095e565b60405180910390207fc89efdaa54c0f20c7adf612882df0950f5a951637e0307cdcb4c672f298b8bc646306040516020016102d89594939291906109aa565b60405160208183030381529060405280519060200120905090565b5f604051905090565b5f5ffd5b5f5ffd5b5f73ffffffffffffffffffffffffffffffffffffffff82169050919050565b5f61032d82610304565b9050919050565b61033d81610323565b8114610347575f5ffd5b50565b5f8151905061035881610334565b92915050565b5f5ffd5b5f5ffd5b5f601f19601f8301169050919050565b7f4e487b71000000000000000000000000000000000000000000000000000000005f52604160045260245ffd5b6103ac82610366565b810181811067ffffffffffffffff821117156103cb576103ca610376565b5b80604052505050565b5f6103dd6102f3565b90506103e982826103a3565b919050565b5f67ffffffffffffffff82111561040857610407610376565b5b61041182610366565b9050602081019050919050565b8281835e5f83830152505050565b5f61043e610439846103ee565b6103d4565b90508281526020810184848401111561045a57610459610362565b5b61046584828561041e565b509392505050565b5f82601f8301126104815761048061035e565b5b815161049184826020860161042c565b91505092915050565b5f6104a482610323565b9050919050565b6104b48161049a565b81146104be575f5ffd5b50565b5f815190506104cf816104ab565b92915050565b5f5f5f5f608085870312156104ed576104ec6102fc565b5b5f6104fa8782880161034a565b945050602085015167ffffffffffffffff81111561051b5761051a610300565b5b6105278782880161046d565b935050604085015167ffffffffffffffff81111561054857610547610300565b5b6105548782880161046d565b9250506060610565878288016104c1565b91505092959194509250565b5f60ff82169050919050565b61058681610571565b8114610590575f5ffd5b50565b5f815190506105a18161057d565b92915050565b5f602082840312156105bc576105bb6102fc565b5b5f6105c984828501610593565b91505092915050565b5f81519050919050565b7f4e487b71000000000000000000000000000000000000000000000000000000005f52602260045260245ffd5b5f600282049050600182168061062057607f821691505b602082108103610633576106326105dc565b5b50919050565b5f819050815f5260205f209050919050565b5f6020601f8301049050919050565b5f82821b905092915050565b5f600883026106957fffffffffffffffffffffffffffffffffffffffffffffffffffffffffffffffff8261065a565b61069f868361065a565b95508019841693508086168417925050509392505050565b5f819050919050565b5f819050919050565b5f6106e36106de6106d9846106b7565b6106c0565b6106b7565b9050919050565b5f819050919050565b6106fc836106c9565b610710610708826106ea565b848454610666565b825550505050565b5f5f905090565b610727610718565b6107328184846106f3565b505050565b5f5b828110156107585761074d5f82840161071f565b600181019050610739565b505050565b601f8211156107ab57828211156107aa5761077781610639565b6107808361064b565b6107898561064b565b6020861015610796575f90505b8083016107a582840382610737565b505050505b5b505050565b5f82821c905092915050565b5f6107cb5f19846008026107b0565b1980831691505092915050565b5f6107e383836107bc565b9150826002028217905092915050565b6107fc826105d2565b67ffffffffffffffff81111561081557610814610376565b5b61081f8254610609565b61082a82828561075d565b5f60209050601f83116001811461085b575f8415610849578287015190505b61085385826107d8565b8655506108ba565b601f19841661086986610639565b5f5b828110156108905784890151825560018201915060208501945060208101905061086b565b868310156108ad57848901516108a9601f8916826107bc565b8355505b6001600288020188555050505b505050505050565b5f81905092915050565b5f819050815f5260205f209050919050565b5f81546108ea81610609565b6108f481866108c2565b9450600182165f811461090e576001811461092357610955565b60ff1983168652811515820286019350610955565b61092c856108cc565b5f5b8381101561094d5781548189015260018201915060208101905061092e565b838801955050505b50505092915050565b5f61096982846108de565b915081905092915050565b5f819050919050565b61098681610974565b82525050565b610995816106b7565b82525050565b6109a481610323565b82525050565b5f60a0820190506109bd5f83018861097d565b6109ca602083018761097d565b6109d7604083018661097d565b6109e4606083018561098c565b6109f1608083018461099b565b9695505050505050565b60805160a05160c05160e051613620610a515f395f81816107f001528181610e8f01528181610fbe015281816112a30152818161176601526119f901525f610e6801525f610e3401525f610d6001526136205ff3fe608060405234801561000f575f5ffd5b5060043610610225575f3560e01c80637ecebe001161012e578063bf7e214f116100b6578063d905777e1161007a578063d905777e14610711578063dd62ed3e14610741578063ef8b30f714610771578063f2fde38b146107a1578063f6e715d0146107bd57610225565b8063bf7e214f14610647578063c63d75b614610665578063c6e6f59214610695578063ce96cb77146106c5578063d505accf146106f557610225565b8063a8c62e76116100fd578063a8c62e7614610569578063a9059cbb14610587578063b3d7f6b9146105b7578063b460af94146105e7578063ba0876521461061757610225565b80637ecebe00146104cd5780638da5cb5b146104fd57806394bf804d1461051b57806395d89b411461054b57610225565b806333a100ca116101b1578063402d267d11610180578063402d267d146103f15780634cdad506146104215780636e553f651461045157806370a08231146104815780637a9e5e4b146104b157610225565b806333a100ca1461037d5780633644e5151461039957806338d52e0f146103b757806339d6ba32146103d557610225565b80630a28a477116101f85780630a28a477146102c557806318160ddd146102f557806318457e611461031357806323b872dd1461032f578063313ce5671461035f57610225565b806301e1d1141461022957806306fdde031461024757806307a2d13a14610265578063095ea7b314610295575b5f5ffd5b6102316107ed565b60405161023e9190612658565b60405180910390f35b61024f61088b565b60405161025c91906126e1565b60405180910390f35b61027f600480360381019061027a9190612733565b610916565b60405161028c9190612658565b60405180910390f35b6102af60048036038101906102aa91906127b8565b61094f565b6040516102bc9190612810565b60405180910390f35b6102df60048036038101906102da9190612733565b610a3c565b6040516102ec9190612658565b60405180910390f35b6102fd610a75565b60405161030a9190612658565b60405180910390f35b61032d60048036038101906103289190612864565b610a7b565b005b610349600480360381019061034491906128db565b610b23565b6040516103569190612810565b60405180910390f35b610367610d5e565b6040516103749190612946565b60405180910390f35b6103976004803603810190610392919061295f565b610d82565b005b6103a1610e31565b6040516103ae91906129a2565b60405180910390f35b6103bf610e8d565b6040516103cc9190612a16565b60405180910390f35b6103ef60048036038101906103ea9190612864565b610eb1565b005b61040b6004803603810190610406919061295f565b610f2e565b6040516104189190612658565b60405180910390f35b61043b60048036038101906104369190612733565b610f57565b6040516104489190612658565b60405180910390f35b61046b60048036038101906104669190612a2f565b610f68565b6040516104789190612658565b60405180910390f35b61049b6004803603810190610496919061295f565b611084565b6040516104a89190612658565b60405180910390f35b6104cb60048036038101906104c69190612aa8565b611099565b005b6104e760048036038101906104e2919061295f565b611255565b6040516104f49190612658565b60405180910390f35b61050561126a565b6040516105129190612ae2565b60405180910390f35b61053560048036038101906105309190612a2f565b61128f565b6040516105429190612658565b60405180910390f35b610553611369565b60405161056091906126e1565b60405180910390f35b6105716113f5565b60405161057e9190612ae2565b60405180910390f35b6105a1600480360381019061059c91906127b8565b61141a565b6040516105ae9190612810565b60405180910390f35b6105d160048036038101906105cc9190612733565b611527565b6040516105de9190612658565b60405180910390f35b61060160048036038101906105fc9190612afb565b611560565b60405161060e9190612658565b60405180910390f35b610631600480360381019061062c9190612afb565b6117b1565b60405161063e9190612658565b60405180910390f35b61064f611a44565b60405161065c9190612b6b565b60405180910390f35b61067f600480360381019061067a919061295f565b611a69565b60405161068c9190612658565b60405180910390f35b6106af60048036038101906106aa9190612733565b611a92565b6040516106bc9190612658565b60405180910390f35b6106df60048036038101906106da919061295f565b611acb565b6040516106ec9190612658565b60405180910390f35b61070f600480360381019061070a9190612bd8565b611b19565b005b61072b6004803603810190610726919061295f565b611e06565b6040516107389190612658565b60405180910390f35b61075b60048036038101906107569190612c75565b611e4c565b6040516107689190612658565b60405180910390f35b61078b60048036038101906107869190612733565b611e6c565b6040516107989190612658565b60405180910390f35b6107bb60048036038101906107b6919061295f565b611e7d565b005b6107d760048036038101906107d29190612d14565b611f86565b6040516107e49190612dd7565b60405180910390f35b5f7f000000000000000000000000000000000000000000000000000000000000000073ffffffffffffffffffffffffffffffffffffffff166370a08231306040518263ffffffff1660e01b81526004016108479190612ae2565b602060405180830381865afa158015610862573d5f5f3e3d5ffd5b505050506040513d601f19601f820116820180604052508101906108869190612e0b565b905090565b5f805461089790612e63565b80601f01602080910402602001604051908101604052809291908181526020018280546108c390612e63565b801561090e5780601f106108e55761010080835404028352916020019161090e565b820191905f5260205f20905b8154815290600101906020018083116108f157829003601f168201915b505050505081565b5f5f60025490505f81146109455761094061092f6107ed565b82856120c99092919063ffffffff16565b610947565b825b915050919050565b5f8160045f3373ffffffffffffffffffffffffffffffffffffffff1673ffffffffffffffffffffffffffffffffffffffff1681526020019081526020015f205f8573ffffffffffffffffffffffffffffffffffffffff1673ffffffffffffffffffffffffffffffffffffffff1681526020019081526020015f20819055508273ffffffffffffffffffffffffffffffffffffffff163373ffffffffffffffffffffffffffffffffffffffff167f8c5be1e5ebec7d5bd14f71427d1e84f3dd0314c0f7b2291e5b200ac8c7c3b92584604051610a2a9190612658565b60405180910390a36001905092915050565b5f5f60025490505f8114610a6b57610a6681610a566107ed565b8561210a9092919063ffffffff16565b610a6d565b825b915050919050565b60025481565b610aa8335f357fffffffff0000000000000000000000000000000000000000000000000000000016612153565b610ae7576040517f08c379a0000000000000000000000000000000000000000000000000000000008152600401610ade90612edd565b60405180910390fd5b610af1828261228d565b610b1c85848673ffffffffffffffffffffffffffffffffffffffff166123589092919063ffffffff16565b5050505050565b5f5f60045f8673ffffffffffffffffffffffffffffffffffffffff1673ffffffffffffffffffffffffffffffffffffffff1681526020019081526020015f205f3373ffffffffffffffffffffffffffffffffffffffff1673ffffffffffffffffffffffffffffffffffffffff1681526020019081526020015f205490507fffffffffffffffffffffffffffffffffffffffffffffffffffffffffffffffff8114610c50578281610bd39190612f28565b60045f8773ffffffffffffffffffffffffffffffffffffffff1673ffffffffffffffffffffffffffffffffffffffff1681526020019081526020015f205f3373ffffffffffffffffffffffffffffffffffffffff1673ffffffffffffffffffffffffffffffffffffffff1681526020019081526020015f20819055505b8260035f8773ffffffffffffffffffffffffffffffffffffffff1673ffffffffffffffffffffffffffffffffffffffff1681526020019081526020015f205f828254610c9c9190612f28565b925050819055508260035f8673ffffffffffffffffffffffffffffffffffffffff1673ffffffffffffffffffffffffffffffffffffffff1681526020019081526020015f205f82825401925050819055508373ffffffffffffffffffffffffffffffffffffffff168573ffffffffffffffffffffffffffffffffffffffff167fddf252ad1be2c89b69c2b068fc378daa952ba7f163c4a11628f55a4df523b3ef85604051610d4a9190612658565b60405180910390a360019150509392505050565b7f000000000000000000000000000000000000000000000000000000000000000081565b610daf335f357fffffffff0000000000000000000000000000000000000000000000000000000016612153565b610dee576040517f08c379a0000000000000000000000000000000000000000000000000000000008152600401610de590612edd565b60405180910390fd5b8060085f6101000a81548173ffffffffffffffffffffffffffffffffffffffff021916908373ffffffffffffffffffffffffffffffffffffffff16021790555050565b5f7f00000000000000000000000000000000000000000000000000000000000000004614610e6657610e6161240f565b610e88565b7f00000000000000000000000000000000000000000000000000000000000000005b905090565b7f000000000000000000000000000000000000000000000000000000000000000081565b610ede335f357fffffffff0000000000000000000000000000000000000000000000000000000016612153565b610f1d576040517f08c379a0000000000000000000000000000000000000000000000000000000008152600401610f1490612edd565b60405180910390fd5b610f278282612499565b5050505050565b5f7fffffffffffffffffffffffffffffffffffffffffffffffffffffffffffffffff9050919050565b5f610f6182610916565b9050919050565b5f5f610f7384611e6c565b91508103610fb6576040517f08c379a0000000000000000000000000000000000000000000000000000000008152600401610fad90612fa5565b60405180910390fd5b6110033330857f000000000000000000000000000000000000000000000000000000000000000073ffffffffffffffffffffffffffffffffffffffff16612564909392919063ffffffff16565b61100d8282612499565b8173ffffffffffffffffffffffffffffffffffffffff163373ffffffffffffffffffffffffffffffffffffffff167fdcbc1c05240f31ff3ad067ef1ee35ce4997762752e3a095284754544f4c709d7858460405161106c929190612fc3565b60405180910390a361107e8382612638565b92915050565b6003602052805f5260405f205f915090505481565b60065f9054906101000a900473ffffffffffffffffffffffffffffffffffffffff1673ffffffffffffffffffffffffffffffffffffffff163373ffffffffffffffffffffffffffffffffffffffff1614806111b0575060075f9054906101000a900473ffffffffffffffffffffffffffffffffffffffff1673ffffffffffffffffffffffffffffffffffffffff1663b700961333305f357fffffffff00000000000000000000000000000000000000000000000000000000166040518463ffffffff1660e01b815260040161117093929190613024565b602060405180830381865afa15801561118b573d5f5f3e3d5ffd5b505050506040513d601f19601f820116820180604052508101906111af9190613083565b5b6111b8575f5ffd5b8060075f6101000a81548173ffffffffffffffffffffffffffffffffffffffff021916908373ffffffffffffffffffffffffffffffffffffffff1602179055508073ffffffffffffffffffffffffffffffffffffffff163373ffffffffffffffffffffffffffffffffffffffff167fa3396fd7f6e0a21b50e5089d2da70d5ac0a3bbbd1f617a93f134b7638998019860405160405180910390a350565b6005602052805f5260405f205f915090505481565b60065f9054906101000a900473ffffffffffffffffffffffffffffffffffffffff1681565b5f61129983611527565b90506112e83330837f000000000000000000000000000000000000000000000000000000000000000073ffffffffffffffffffffffffffffffffffffffff16612564909392919063ffffffff16565b6112f28284612499565b8173ffffffffffffffffffffffffffffffffffffffff163373ffffffffffffffffffffffffffffffffffffffff167fdcbc1c05240f31ff3ad067ef1ee35ce4997762752e3a095284754544f4c709d78386604051611351929190612fc3565b60405180910390a36113638184612638565b92915050565b6001805461137690612e63565b80601f01602080910402602001604051908101604052809291908181526020018280546113a290612e63565b80156113ed5780601f106113c4576101008083540402835291602001916113ed565b820191905f5260205f20905b8154815290600101906020018083116113d057829003601f168201915b505050505081565b60085f9054906101000a900473ffffffffffffffffffffffffffffffffffffffff1681565b5f8160035f3373ffffffffffffffffffffffffffffffffffffffff1673ffffffffffffffffffffffffffffffffffffffff1681526020019081526020015f205f8282546114679190612f28565b925050819055508160035f8573ffffffffffffffffffffffffffffffffffffffff1673ffffffffffffffffffffffffffffffffffffffff1681526020019081526020015f205f82825401925050819055508273ffffffffffffffffffffffffffffffffffffffff163373ffffffffffffffffffffffffffffffffffffffff167fddf252ad1be2c89b69c2b068fc378daa952ba7f163c4a11628f55a4df523b3ef846040516115159190612658565b60405180910390a36001905092915050565b5f5f60025490505f8114611556576115516115406107ed565b828561210a9092919063ffffffff16565b611558565b825b915050919050565b5f61156a84610a3c565b90508173ffffffffffffffffffffffffffffffffffffffff163373ffffffffffffffffffffffffffffffffffffffff16146116cd575f60045f8473ffffffffffffffffffffffffffffffffffffffff1673ffffffffffffffffffffffffffffffffffffffff1681526020019081526020015f205f3373ffffffffffffffffffffffffffffffffffffffff1673ffffffffffffffffffffffffffffffffffffffff1681526020019081526020015f205490507fffffffffffffffffffffffffffffffffffffffffffffffffffffffffffffffff81146116cb57818161164e9190612f28565b60045f8573ffffffffffffffffffffffffffffffffffffffff1673ffffffffffffffffffffffffffffffffffffffff1681526020019081526020015f205f3373ffffffffffffffffffffffffffffffffffffffff1673ffffffffffffffffffffffffffffffffffffffff1681526020019081526020015f20819055505b505b6116d7848261263c565b6116e1828261228d565b8173ffffffffffffffffffffffffffffffffffffffff168373ffffffffffffffffffffffffffffffffffffffff163373ffffffffffffffffffffffffffffffffffffffff167ffbde797d201c681b91056529119e0b02407c7bb96a4a2c75c01fc9667232c8db8785604051611757929190612fc3565b60405180910390a46117aa83857f000000000000000000000000000000000000000000000000000000000000000073ffffffffffffffffffffffffffffffffffffffff166123589092919063ffffffff16565b9392505050565b5f8173ffffffffffffffffffffffffffffffffffffffff163373ffffffffffffffffffffffffffffffffffffffff1614611913575f60045f8473ffffffffffffffffffffffffffffffffffffffff1673ffffffffffffffffffffffffffffffffffffffff1681526020019081526020015f205f3373ffffffffffffffffffffffffffffffffffffffff1673ffffffffffffffffffffffffffffffffffffffff1681526020019081526020015f205490507fffffffffffffffffffffffffffffffffffffffffffffffffffffffffffffffff81146119115784816118949190612f28565b60045f8573ffffffffffffffffffffffffffffffffffffffff1673ffffffffffffffffffffffffffffffffffffffff1681526020019081526020015f205f3373ffffffffffffffffffffffffffffffffffffffff1673ffffffffffffffffffffffffffffffffffffffff1681526020019081526020015f20819055505b505b5f61191d85610f57565b91508103611960576040517f08c379a0000000000000000000000000000000000000000000000000000000008152600401611957906130f8565b60405180910390fd5b61196a818561263c565b611974828561228d565b8173ffffffffffffffffffffffffffffffffffffffff168373ffffffffffffffffffffffffffffffffffffffff163373ffffffffffffffffffffffffffffffffffffffff167ffbde797d201c681b91056529119e0b02407c7bb96a4a2c75c01fc9667232c8db84886040516119ea929190612fc3565b60405180910390a4611a3d83827f000000000000000000000000000000000000000000000000000000000000000073ffffffffffffffffffffffffffffffffffffffff166123589092919063ffffffff16565b9392505050565b60075f9054906101000a900473ffffffffffffffffffffffffffffffffffffffff1681565b5f7fffffffffffffffffffffffffffffffffffffffffffffffffffffffffffffffff9050919050565b5f5f60025490505f8114611ac157611abc81611aac6107ed565b856120c99092919063ffffffff16565b611ac3565b825b915050919050565b5f611b1260035f8473ffffffffffffffffffffffffffffffffffffffff1673ffffffffffffffffffffffffffffffffffffffff1681526020019081526020015f2054610916565b9050919050565b42841015611b5c576040517f08c379a0000000000000000000000000000000000000000000000000000000008152600401611b5390613160565b60405180910390fd5b5f6001611b67610e31565b7f6e71edae12b1b97f4d1f60370fef10105fa2faae0126114a169c64845d6126c98a8a8a60055f8f73ffffffffffffffffffffffffffffffffffffffff1673ffffffffffffffffffffffffffffffffffffffff1681526020019081526020015f205f815480929190600101919050558b604051602001611bec9695949392919061317e565b60405160208183030381529060405280519060200120604051602001611c13929190613251565b604051602081830303815290604052805190602001208585856040515f8152602001604052604051611c489493929190613287565b6020604051602081039080840390855afa158015611c68573d5f5f3e3d5ffd5b5050506020604051035190505f73ffffffffffffffffffffffffffffffffffffffff168173ffffffffffffffffffffffffffffffffffffffff1614158015611cdb57508773ffffffffffffffffffffffffffffffffffffffff168173ffffffffffffffffffffffffffffffffffffffff16145b611d1a576040517f08c379a0000000000000000000000000000000000000000000000000000000008152600401611d1190613314565b60405180910390fd5b8560045f8373ffffffffffffffffffffffffffffffffffffffff1673ffffffffffffffffffffffffffffffffffffffff1681526020019081526020015f205f8973ffffffffffffffffffffffffffffffffffffffff1673ffffffffffffffffffffffffffffffffffffffff1681526020019081526020015f2081905550508573ffffffffffffffffffffffffffffffffffffffff168773ffffffffffffffffffffffffffffffffffffffff167f8c5be1e5ebec7d5bd14f71427d1e84f3dd0314c0f7b2291e5b200ac8c7c3b92587604051611df59190612658565b60405180910390a350505050505050565b5f60035f8373ffffffffffffffffffffffffffffffffffffffff1673ffffffffffffffffffffffffffffffffffffffff1681526020019081526020015f20549050919050565b6004602052815f5260405f20602052805f5260405f205f91509150505481565b5f611e7682611a92565b9050919050565b611eaa335f357fffffffff0000000000000000000000000000000000000000000000000000000016612153565b611ee9576040517f08c379a0000000000000000000000000000000000000000000000000000000008152600401611ee090612edd565b60405180910390fd5b8060065f6101000a81548173ffffffffffffffffffffffffffffffffffffffff021916908373ffffffffffffffffffffffffffffffffffffffff1602179055508073ffffffffffffffffffffffffffffffffffffffff163373ffffffffffffffffffffffffffffffffffffffff167f8be0079c531659141344cd1fd0a4f28419497f9722a3daafe3b4186f6b6457e060405160405180910390a350565b606060085f9054906101000a900473ffffffffffffffffffffffffffffffffffffffff1673ffffffffffffffffffffffffffffffffffffffff163373ffffffffffffffffffffffffffffffffffffffff161461200e576040517fc53dc44600000000000000000000000000000000000000000000000000000000815260040160405180910390fd5b5f5f8673ffffffffffffffffffffffffffffffffffffffff1684878760405161203892919061336e565b5f6040518083038185875af1925050503d805f8114612072576040519150601f19603f3d011682016040523d82523d5f602084013e612077565b606091505b5091509150816120bc576040517f08c379a00000000000000000000000000000000000000000000000000000000081526004016120b3906133d0565b60405180910390fd5b8092505050949350505050565b5f827fffffffffffffffffffffffffffffffffffffffffffffffffffffffffffffffff04841183021582026120fc575f5ffd5b818385020490509392505050565b5f827fffffffffffffffffffffffffffffffffffffffffffffffffffffffffffffffff048411830215820261213d575f5ffd5b81838502045f8385870206110190509392505050565b5f5f60075f9054906101000a900473ffffffffffffffffffffffffffffffffffffffff1690505f73ffffffffffffffffffffffffffffffffffffffff168173ffffffffffffffffffffffffffffffffffffffff161415801561222d57508073ffffffffffffffffffffffffffffffffffffffff1663b70096138530866040518463ffffffff1660e01b81526004016121ed93929190613024565b602060405180830381865afa158015612208573d5f5f3e3d5ffd5b505050506040513d601f19601f8201168201806040525081019061222c9190613083565b5b80612284575060065f9054906101000a900473ffffffffffffffffffffffffffffffffffffffff1673ffffffffffffffffffffffffffffffffffffffff168473ffffffffffffffffffffffffffffffffffffffff16145b91505092915050565b8060035f8473ffffffffffffffffffffffffffffffffffffffff1673ffffffffffffffffffffffffffffffffffffffff1681526020019081526020015f205f8282546122d99190612f28565b925050819055508060025f82825403925050819055505f73ffffffffffffffffffffffffffffffffffffffff168273ffffffffffffffffffffffffffffffffffffffff167fddf252ad1be2c89b69c2b068fc378daa952ba7f163c4a11628f55a4df523b3ef8360405161234c9190612658565b60405180910390a35050565b5f6040517fa9059cbb00000000000000000000000000000000000000000000000000000000815273ffffffffffffffffffffffffffffffffffffffff8416600482015282602482015260205f6044835f895af1915081601f3d1160015f5114161516156123c8573d853b15171591505b5080612409576040517f08c379a000000000000000000000000000000000000000000000000000000000815260040161240090613438565b60405180910390fd5b50505050565b5f7f8b73c3c69bb8fe3d512ecc4cf759cc79239f7b179b0ffacaa9a75d522b39400f5f60405161243f91906134e8565b60405180910390207fc89efdaa54c0f20c7adf612882df0950f5a951637e0307cdcb4c672f298b8bc6463060405160200161247e9594939291906134fe565b60405160208183030381529060405280519060200120905090565b8060025f8282546124aa919061354f565b925050819055508060035f8473ffffffffffffffffffffffffffffffffffffffff1673ffffffffffffffffffffffffffffffffffffffff1681526020019081526020015f205f82825401925050819055508173ffffffffffffffffffffffffffffffffffffffff165f73ffffffffffffffffffffffffffffffffffffffff167fddf252ad1be2c89b69c2b068fc378daa952ba7f163c4a11628f55a4df523b3ef836040516125589190612658565b60405180910390a35050565b5f6040517f23b872dd00000000000000000000000000000000000000000000000000000000815273ffffffffffffffffffffffffffffffffffffffff8516600482015273ffffffffffffffffffffffffffffffffffffffff8416602482015282604482015260205f6064835f8a5af1915081601f3d1160015f5114161516156125f0573d863b15171591505b5080612631576040517f08c379a0000000000000000000000000000000000000000000000000000000008152600401612628906135cc565b60405180910390fd5b5050505050565b5050565b5050565b5f819050919050565b61265281612640565b82525050565b5f60208201905061266b5f830184612649565b92915050565b5f81519050919050565b5f82825260208201905092915050565b8281835e5f83830152505050565b5f601f19601f8301169050919050565b5f6126b382612671565b6126bd818561267b565b93506126cd81856020860161268b565b6126d681612699565b840191505092915050565b5f6020820190508181035f8301526126f981846126a9565b905092915050565b5f5ffd5b5f5ffd5b61271281612640565b811461271c575f5ffd5b50565b5f8135905061272d81612709565b92915050565b5f6020828403121561274857612747612701565b5b5f6127558482850161271f565b91505092915050565b5f73ffffffffffffffffffffffffffffffffffffffff82169050919050565b5f6127878261275e565b9050919050565b6127978161277d565b81146127a1575f5ffd5b50565b5f813590506127b28161278e565b92915050565b5f5f604083850312156127ce576127cd612701565b5b5f6127db858286016127a4565b92505060206127ec8582860161271f565b9150509250929050565b5f8115159050919050565b61280a816127f6565b82525050565b5f6020820190506128235f830184612801565b92915050565b5f6128338261277d565b9050919050565b61284381612829565b811461284d575f5ffd5b50565b5f8135905061285e8161283a565b92915050565b5f5f5f5f5f60a0868803121561287d5761287c612701565b5b5f61288a888289016127a4565b955050602061289b88828901612850565b94505060406128ac8882890161271f565b93505060606128bd888289016127a4565b92505060806128ce8882890161271f565b9150509295509295909350565b5f5f5f606084860312156128f2576128f1612701565b5b5f6128ff868287016127a4565b9350506020612910868287016127a4565b92505060406129218682870161271f565b9150509250925092565b5f60ff82169050919050565b6129408161292b565b82525050565b5f6020820190506129595f830184612937565b92915050565b5f6020828403121561297457612973612701565b5b5f612981848285016127a4565b91505092915050565b5f819050919050565b61299c8161298a565b82525050565b5f6020820190506129b55f830184612993565b92915050565b5f819050919050565b5f6129de6129d96129d48461275e565b6129bb565b61275e565b9050919050565b5f6129ef826129c4565b9050919050565b5f612a00826129e5565b9050919050565b612a10816129f6565b82525050565b5f602082019050612a295f830184612a07565b92915050565b5f5f60408385031215612a4557612a44612701565b5b5f612a528582860161271f565b9250506020612a63858286016127a4565b9150509250929050565b5f612a778261277d565b9050919050565b612a8781612a6d565b8114612a91575f5ffd5b50565b5f81359050612aa281612a7e565b92915050565b5f60208284031215612abd57612abc612701565b5b5f612aca84828501612a94565b91505092915050565b612adc8161277d565b82525050565b5f602082019050612af55f830184612ad3565b92915050565b5f5f5f60608486031215612b1257612b11612701565b5b5f612b1f8682870161271f565b9350506020612b30868287016127a4565b9250506040612b41868287016127a4565b9150509250925092565b5f612b55826129e5565b9050919050565b612b6581612b4b565b82525050565b5f602082019050612b7e5f830184612b5c565b92915050565b612b8d8161292b565b8114612b97575f5ffd5b50565b5f81359050612ba881612b84565b92915050565b612bb78161298a565b8114612bc1575f5ffd5b50565b5f81359050612bd281612bae565b92915050565b5f5f5f5f5f5f5f60e0888a031215612bf357612bf2612701565b5b5f612c008a828b016127a4565b9750506020612c118a828b016127a4565b9650506040612c228a828b0161271f565b9550506060612c338a828b0161271f565b9450506080612c448a828b01612b9a565b93505060a0612c558a828b01612bc4565b92505060c0612c668a828b01612bc4565b91505092959891949750929550565b5f5f60408385031215612c8b57612c8a612701565b5b5f612c98858286016127a4565b9250506020612ca9858286016127a4565b9150509250929050565b5f5ffd5b5f5ffd5b5f5ffd5b5f5f83601f840112612cd457612cd3612cb3565b5b8235905067ffffffffffffffff811115612cf157612cf0612cb7565b5b602083019150836001820283011115612d0d57612d0c612cbb565b5b9250929050565b5f5f5f5f60608587031215612d2c57612d2b612701565b5b5f612d39878288016127a4565b945050602085013567ffffffffffffffff811115612d5a57612d59612705565b5b612d6687828801612cbf565b93509350506040612d798782880161271f565b91505092959194509250565b5f81519050919050565b5f82825260208201905092915050565b5f612da982612d85565b612db38185612d8f565b9350612dc381856020860161268b565b612dcc81612699565b840191505092915050565b5f6020820190508181035f830152612def8184612d9f565b905092915050565b5f81519050612e0581612709565b92915050565b5f60208284031215612e2057612e1f612701565b5b5f612e2d84828501612df7565b91505092915050565b7f4e487b71000000000000000000000000000000000000000000000000000000005f52602260045260245ffd5b5f6002820490506001821680612e7a57607f821691505b602082108103612e8d57612e8c612e36565b5b50919050565b7f554e415554484f52495a454400000000000000000000000000000000000000005f82015250565b5f612ec7600c8361267b565b9150612ed282612e93565b602082019050919050565b5f6020820190508181035f830152612ef481612ebb565b9050919050565b7f4e487b71000000000000000000000000000000000000000000000000000000005f52601160045260245ffd5b5f612f3282612640565b9150612f3d83612640565b9250828203905081811115612f5557612f54612efb565b5b92915050565b7f5a45524f5f5348415245530000000000000000000000000000000000000000005f82015250565b5f612f8f600b8361267b565b9150612f9a82612f5b565b602082019050919050565b5f6020820190508181035f830152612fbc81612f83565b9050919050565b5f604082019050612fd65f830185612649565b612fe36020830184612649565b9392505050565b5f7fffffffff0000000000000000000000000000000000000000000000000000000082169050919050565b61301e81612fea565b82525050565b5f6060820190506130375f830186612ad3565b6130446020830185612ad3565b6130516040830184613015565b949350505050565b613062816127f6565b811461306c575f5ffd5b50565b5f8151905061307d81613059565b92915050565b5f6020828403121561309857613097612701565b5b5f6130a58482850161306f565b91505092915050565b7f5a45524f5f4153534554530000000000000000000000000000000000000000005f82015250565b5f6130e2600b8361267b565b91506130ed826130ae565b602082019050919050565b5f6020820190508181035f83015261310f816130d6565b9050919050565b7f5045524d49545f444541444c494e455f455850495245440000000000000000005f82015250565b5f61314a60178361267b565b915061315582613116565b602082019050919050565b5f6020820190508181035f8301526131778161313e565b9050919050565b5f60c0820190506131915f830189612993565b61319e6020830188612ad3565b6131ab6040830187612ad3565b6131b86060830186612649565b6131c56080830185612649565b6131d260a0830184612649565b979650505050505050565b5f81905092915050565b7f19010000000000000000000000000000000000000000000000000000000000005f82015250565b5f61321b6002836131dd565b9150613226826131e7565b600282019050919050565b5f819050919050565b61324b6132468261298a565b613231565b82525050565b5f61325b8261320f565b9150613267828561323a565b602082019150613277828461323a565b6020820191508190509392505050565b5f60808201905061329a5f830187612993565b6132a76020830186612937565b6132b46040830185612993565b6132c16060830184612993565b95945050505050565b7f494e56414c49445f5349474e45520000000000000000000000000000000000005f82015250565b5f6132fe600e8361267b565b9150613309826132ca565b602082019050919050565b5f6020820190508181035f83015261332b816132f2565b9050919050565b5f81905092915050565b828183375f83830152505050565b5f6133558385613332565b935061336283858461333c565b82840190509392505050565b5f61337a82848661334a565b91508190509392505050565b7f426f72696e675661756c743a2043616c6c204661696c656400000000000000005f82015250565b5f6133ba60188361267b565b91506133c582613386565b602082019050919050565b5f6020820190508181035f8301526133e7816133ae565b9050919050565b7f5452414e534645525f4641494c454400000000000000000000000000000000005f82015250565b5f613422600f8361267b565b915061342d826133ee565b602082019050919050565b5f6020820190508181035f83015261344f81613416565b9050919050565b5f819050815f5260205f209050919050565b5f815461347481612e63565b61347e8186613332565b9450600182165f811461349857600181146134ad576134df565b60ff19831686528115158202860193506134df565b6134b685613456565b5f5b838110156134d7578154818901526001820191506020810190506134b8565b838801955050505b50505092915050565b5f6134f38284613468565b915081905092915050565b5f60a0820190506135115f830188612993565b61351e6020830187612993565b61352b6040830186612993565b6135386060830185612649565b6135456080830184612ad3565b9695505050505050565b5f61355982612640565b915061356483612640565b925082820190508082111561357c5761357b612efb565b5b92915050565b7f5452414e534645525f46524f4d5f4641494c45440000000000000000000000005f82015250565b5f6135b660148361267b565b91506135c182613582565b602082019050919050565b5f6020820190508181035f8301526135e3816135aa565b905091905056fea264697066735822122061d2efbdb453e595e5634ef8181e2c72387c0b58e24ffdff1b5e07546f885d6f64736f6c63430008210033","linkReferences":{}},"methodIdentifiers":{"DOMAIN_SEPARATOR()":"3644e515","allowance(address,address)":"dd62ed3e","approve(address,uint256)":"095ea7b3","asset()":"38d52e0f","authority()":"bf7e214f","balanceOf(address)":"70a08231","convertToAssets(uint256)":"07a2d13a","convertToShares(uint256)":"c6e6f592","decimals()":"313ce567","deposit(uint256,address)":"6e553f65","enter(address,address,uint256,address,uint256)":"39d6ba32","exit(address,address,uint256,address,uint256)":"18457e61","manage(address,bytes,uint256)":"f6e715d0","maxDeposit(address)":"402d267d","maxMint(address)":"c63d75b6","maxRedeem(address)":"d905777e","maxWithdraw(address)":"ce96cb77","mint(uint256,address)":"94bf804d","name()":"06fdde03","nonces(address)":"7ecebe00","owner()":"8da5cb5b","permit(address,address,uint256,uint256,uint8,bytes32,bytes32)":"d505accf","previewDeposit(uint256)":"ef8b30f7","previewMint(uint256)":"b3d7f6b9","previewRedeem(uint256)":"4cdad506","previewWithdraw(uint256)":"0a28a477","redeem(uint256,address,address)":"ba087652","setAuthority(address)":"7a9e5e4b","setStrategy(address)":"33a100ca","strategy()":"a8c62e76","symbol()":"95d89b41","totalAssets()":"01e1d114","totalSupply()":"18160ddd","transfer(address,uint256)":"a9059cbb","transferFrom(address,address,uint256)":"23b872dd","transferOwnership(address)":"f2fde38b","withdraw(uint256,address,address)":"b460af94"},"id":23}