{"abi":[{"type":"constructor","inputs":[{"name":"_morphoBlue","type":"address","internalType":"address"},{"name":"_usdc","type":"address","internalType":"address"}],"stateMutability":"nonpayable"},{"type":"function","name":"MORPHO_BLUE","inputs":[],"outputs":[{"name":"","type":"address","internalType":"address"}],"stateMutability":"view"},{"type":"function","name":"USDC","inputs":[],"outputs":[{"name":"","type":"address","internalType":"address"}],"stateMutability":"view"},{"type":"function","name":"verify","inputs":[{"name":"target","type":"address","internalType":"address"},{"name":"data","type":"bytes","internalType":"bytes"}],"outputs":[],"stateMutability":"view"},{"type":"error","name":"MorphoDecoder__InvalidFunction","inputs":[]},{"type":"error","name":"MorphoDecoder__InvalidLoanToken","inputs":[]},{"type":"error","name":"MorphoDecoder__InvalidTarget","inputs":[]}],"bytecode":{"object":"0x60c060405234801561000f575f5ffd5b5060405161097b38038061097b833981810160405281019061003191906100fe565b8173ffffffffffffffffffffffffffffffffffffffff1660808173ffffffffffffffffffffffffffffffffffffffff16815250508073ffffffffffffffffffffffffffffffffffffffff1660a08173ffffffffffffffffffffffffffffffffffffffff1681525050505061013c565b5f5ffd5b5f73ffffffffffffffffffffffffffffffffffffffff82169050919050565b5f6100cd826100a4565b9050919050565b6100dd816100c3565b81146100e7575f5ffd5b50565b5f815190506100f8816100d4565b92915050565b5f5f60408385031215610114576101136100a0565b5b5f610121858286016100ea565b9250506020610132858286016100ea565b9150509250929050565b60805160a05161081161016a5f395f81816102a8015261036e01525f8181609d015261039201526108115ff3fe608060405234801561000f575f5ffd5b506004361061003f575f3560e01c80634a41d1ac1461004357806389a302711461005f57806399fec7a01461007d575b5f5ffd5b61005d60048036038101906100589190610502565b61009b565b005b61006761036c565b604051610074919061056e565b60405180910390f35b610085610390565b604051610092919061056e565b60405180910390f35b7f000000000000000000000000000000000000000000000000000000000000000073ffffffffffffffffffffffffffffffffffffffff168373ffffffffffffffffffffffffffffffffffffffff1614610120576040517f14e9bc5c00000000000000000000000000000000000000000000000000000000815260040160405180910390fd5b5f82825f906004926101349392919061058f565b9061013f919061060a565b90506101496103b4565b63a99aad8960e01b7bffffffffffffffffffffffffffffffffffffffffffffffffffffffff1916827bffffffffffffffffffffffffffffffffffffffffffffffffffffffff191614806101e05750635c2bea4960e01b7bffffffffffffffffffffffffffffffffffffffffffffffffffffffff1916827bffffffffffffffffffffffffffffffffffffffffffffffffffffffff1916145b8061022f57506350d8cd4b60e01b7bffffffffffffffffffffffffffffffffffffffffffffffffffffffff1916827bffffffffffffffffffffffffffffffffffffffffffffffffffffffff1916145b8061027e57506320b76e8160e01b7bffffffffffffffffffffffffffffffffffffffffffffffffffffffff1916827bffffffffffffffffffffffffffffffffffffffffffffffffffffffff1916145b1561033357838360049060a4926102979392919061058f565b8101906102a491906107b0565b90507f000000000000000000000000000000000000000000000000000000000000000073ffffffffffffffffffffffffffffffffffffffff16815f015173ffffffffffffffffffffffffffffffffffffffff161461032e576040517fe88d571a00000000000000000000000000000000000000000000000000000000815260040160405180910390fd5b610365565b6040517fd3a85b8800000000000000000000000000000000000000000000000000000000815260040160405180910390fd5b5050505050565b7f000000000000000000000000000000000000000000000000000000000000000081565b7f000000000000000000000000000000000000000000000000000000000000000081565b6040518060a001604052805f73ffffffffffffffffffffffffffffffffffffffff1681526020015f73ffffffffffffffffffffffffffffffffffffffff1681526020015f73ffffffffffffffffffffffffffffffffffffffff1681526020015f73ffffffffffffffffffffffffffffffffffffffff1681526020015f81525090565b5f604051905090565b5f5ffd5b5f5ffd5b5f73ffffffffffffffffffffffffffffffffffffffff82169050919050565b5f61047082610447565b9050919050565b61048081610466565b811461048a575f5ffd5b50565b5f8135905061049b81610477565b92915050565b5f5ffd5b5f5ffd5b5f5ffd5b5f5f83601f8401126104c2576104c16104a1565b5b8235905067ffffffffffffffff8111156104df576104de6104a5565b5b6020830191508360018202830111156104fb576104fa6104a9565b5b9250929050565b5f5f5f604084860312156105195761051861043f565b5b5f6105268682870161048d565b935050602084013567ffffffffffffffff81111561054757610546610443565b5b610553868287016104ad565b92509250509250925092565b61056881610466565b82525050565b5f6020820190506105815f83018461055f565b92915050565b5f5ffd5b5f5ffd5b5f5f858511156105a2576105a1610587565b5b838611156105b3576105b261058b565b5b6001850283019150848603905094509492505050565b5f82905092915050565b5f7fffffffff0000000000000000000000000000000000000000000000000000000082169050919050565b5f82821b905092915050565b5f61061583836105c9565b8261062081356105d3565b925060048210156106605761065b7fffffffff00000000000000000000000000000000000000000000000000000000836004036008026105fe565b831692505b505092915050565b5f5ffd5b5f601f19601f8301169050919050565b7f4e487b71000000000000000000000000000000000000000000000000000000005f52604160045260245ffd5b6106b28261066c565b810181811067ffffffffffffffff821117156106d1576106d061067c565b5b80604052505050565b5f6106e3610436565b90506106ef82826106a9565b919050565b5f819050919050565b610706816106f4565b8114610710575f5ffd5b50565b5f81359050610721816106fd565b92915050565b5f60a0828403121561073c5761073b610668565b5b61074660a06106da565b90505f6107558482850161048d565b5f8301525060206107688482850161048d565b602083015250604061077c8482850161048d565b60408301525060606107908482850161048d565b60608301525060806107a484828501610713565b60808301525092915050565b5f60a082840312156107c5576107c461043f565b5b5f6107d284828501610727565b9150509291505056fea26469706673582212201c4fc35de0b12ea844db1484ee19267381526c844b0894c8c37482ba352d599164736f6c63430008210033","linkReferences":{}},"methodIdentifiers":{"MORPHO_BLUE()":"99fec7a0","USDC()":"89a30271","verify(address,bytes)":"4a41d1ac"},"id":28}