{"abi":[{"type":"function","name":"beforeDeposit","inputs":[{"name":"user","type":"address","internalType":"address"},{"name":"amount","type":"uint256","internalType":"uint256"}],"outputs":[],"stateMutability":"nonpayable"},{"type":"function","name":"isVerified","inputs":[{"name":"user","type":"address","internalType":"address"}],"outputs":[{"name":"","type":"bool","internalType":"bool"}],"stateMutability":"view"},{"type":"function","name":"setVerified","inputs":[{"name":"user","type":"address","internalType":"address"},{"name":"status","type":"bool","internalType":"bool"}],"outputs":[],"stateMutability":"nonpayable"},{"type":"function","name":"verifiedHumans","inputs":[{"name":"","type":"address","internalType":"address"}],"outputs":[{"name":"","type":"bool","internalType":"bool"}],"stateMutability":"view"}],"bytecode":{"object":"0x6080604052348015600e575f5ffd5b506103798061001c5f395ff3fe608060405234801561000f575f5ffd5b506004361061004a575f3560e01c806315a23b1a1461004e5780639957459f1461006a5780639cf5c6131461009a578063b9209e33146100b6575b5f5ffd5b6100686004803603810190610063919061023f565b6100e6565b005b610084600480360381019061007f919061027d565b6100ea565b60405161009191906102c2565b60405180910390f35b6100b460048036038101906100af9190610305565b610106565b005b6100d060048036038101906100cb919061027d565b61015d565b6040516100dd91906102c2565b60405180910390f35b5050565b5f602052805f5260405f205f915054906101000a900460ff1681565b805f5f8473ffffffffffffffffffffffffffffffffffffffff1673ffffffffffffffffffffffffffffffffffffffff1681526020019081526020015f205f6101000a81548160ff0219169083151502179055505050565b5f5f5f8373ffffffffffffffffffffffffffffffffffffffff1673ffffffffffffffffffffffffffffffffffffffff1681526020019081526020015f205f9054906101000a900460ff169050919050565b5f5ffd5b5f73ffffffffffffffffffffffffffffffffffffffff82169050919050565b5f6101db826101b2565b9050919050565b6101eb816101d1565b81146101f5575f5ffd5b50565b5f81359050610206816101e2565b92915050565b5f819050919050565b61021e8161020c565b8114610228575f5ffd5b50565b5f8135905061023981610215565b92915050565b5f5f60408385031215610255576102546101ae565b5b5f610262858286016101f8565b92505060206102738582860161022b565b9150509250929050565b5f60208284031215610292576102916101ae565b5b5f61029f848285016101f8565b91505092915050565b5f8115159050919050565b6102bc816102a8565b82525050565b5f6020820190506102d55f8301846102b3565b92915050565b6102e4816102a8565b81146102ee575f5ffd5b50565b5f813590506102ff816102db565b92915050565b5f5f6040838503121561031b5761031a6101ae565b5b5f610328858286016101f8565b9250506020610339858286016102f1565b915050925092905056fea2646970667358221220e18a79ef7fa338ba3b93e2b765606753ff09dfec68a0a7dfd49d440d4031aaf864736f6c63430008210033","linkReferences":{}},"methodIdentifiers":{"beforeDeposit(address,uint256)":"15a23b1a","isVerified(address)":"b9209e33","setVerified(address,bool)":"9cf5c613","verifiedHumans(address)":"9957459f"},"id":29}