{"abi":[{"type":"constructor","inputs":[{"name":"_owner","type":"address","internalType":"address"},{"name":"_vault","type":"address","internalType":"address"}],"stateMutability":"nonpayable"},{"type":"function","name":"authority","inputs":[],"outputs":[{"name":"","type":"address","internalType":"contract Authority"}],"stateMutability":"view"},{"type":"function","name":"manageRoot","inputs":[],"outputs":[{"name":"","type":"bytes32","internalType":"bytes32"}],"stateMutability":"view"},{"type":"function","name":"manageVaultWithMerkleVerification","inputs":[{"name":"proofs","type":"bytes32[][]","internalType":"bytes32[][]"},{"name":"decodersAndSanitizers","type":"address[]","internalType":"address[]"},{"name":"targets","type":"address[]","internalType":"address[]"},{"name":"data","type":"bytes[]","internalType":"bytes[]"},{"name":"values","type":"uint256[]","internalType":"uint256[]"}],"outputs":[],"stateMutability":"nonpayable"},{"type":"function","name":"owner","inputs":[],"outputs":[{"name":"","type":"address","internalType":"address"}],"stateMutability":"view"},{"type":"function","name":"pulse","inputs":[{"name":"action","type":"string","internalType":"string"},{"name":"rationale","type":"string","internalType":"string"}],"outputs":[],"stateMutability":"nonpayable"},{"type":"function","name":"setAuthority","inputs":[{"name":"newAuthority","type":"address","internalType":"contract Authority"}],"outputs":[],"stateMutability":"nonpayable"},{"type":"function","name":"setManageRoot","inputs":[{"name":"_manageRoot","type":"bytes32","internalType":"bytes32"}],"outputs":[],"stateMutability":"nonpayable"},{"type":"function","name":"transferOwnership","inputs":[{"name":"newOwner","type":"address","internalType":"address"}],"outputs":[],"stateMutability":"nonpayable"},{"type":"function","name":"vault","inputs":[],"outputs":[{"name":"","type":"address","internalType":"contract BoringVault"}],"stateMutability":"view"},{"type":"event","name":"AuthorityUpdated","inputs":[{"name":"user","type":"address","indexed":true,"internalType":"address"},{"name":"newAuthority","type":"address","indexed":true,"internalType":"contract Authority"}],"anonymous":false},{"type":"event","name":"ManageRootUpdated","inputs":[{"name":"oldRoot","type":"bytes32","indexed":false,"internalType":"bytes32"},{"name":"newRoot","type":"bytes32","indexed":false,"internalType":"bytes32"}],"anonymous":false},{"type":"event","name":"OwnershipTransferred","inputs":[{"name":"user","type":"address","indexed":true,"internalType":"address"},{"name":"newOwner","type":"address","indexed":true,"internalType":"address"}],"anonymous":false},{"type":"event","name":"VaultPulse","inputs":[{"name":"action","type":"string","indexed":false,"internalType":"string"},{"name":"rationale","type":"string","indexed":false,"internalType":"string"},{"name":"timestamp","type":"uint256","indexed":false,"internalType":"uint256"}],"anonymous":false},{"type":"error","name":"Manager__InvalidProof","inputs":[]}],"bytecode":{"object":"0x60a060405234801561000f575f5ffd5b5060405161184438038061184483398181016040528101906100319190610201565b815f815f5f6101000a81548173ffffffffffffffffffffffffffffffffffffffff021916908373ffffffffffffffffffffffffffffffffffffffff1602179055508060015f6101000a81548173ffffffffffffffffffffffffffffffffffffffff021916908373ffffffffffffffffffffffffffffffffffffffff1602179055508173ffffffffffffffffffffffffffffffffffffffff163373ffffffffffffffffffffffffffffffffffffffff167f8be0079c531659141344cd1fd0a4f28419497f9722a3daafe3b4186f6b6457e060405160405180910390a38073ffffffffffffffffffffffffffffffffffffffff163373ffffffffffffffffffffffffffffffffffffffff167fa3396fd7f6e0a21b50e5089d2da70d5ac0a3bbbd1f617a93f134b7638998019860405160405180910390a350508073ffffffffffffffffffffffffffffffffffffffff1660808173ffffffffffffffffffffffffffffffffffffffff1681525050505061023f565b5f5ffd5b5f73ffffffffffffffffffffffffffffffffffffffff82169050919050565b5f6101d0826101a7565b9050919050565b6101e0816101c6565b81146101ea575f5ffd5b50565b5f815190506101fb816101d7565b92915050565b5f5f60408385031215610217576102166101a3565b5b5f610224858286016101ed565b9250506020610235858286016101ed565b9150509250929050565b6080516115e661025e5f395f818161031f01526108b401526115e65ff3fe608060405234801561000f575f5ffd5b5060043610610091575f3560e01c8063bf7e214f11610064578063bf7e214f14610107578063d0e2294214610125578063ed6ee6bb14610141578063f2fde38b1461015f578063fbfa77cf1461017b57610091565b8063244b0f6a146100955780637a9e5e4b146100b15780637dd16f59146100cd5780638da5cb5b146100e9575b5f5ffd5b6100af60048036038101906100aa9190610bd6565b610199565b005b6100cb60048036038101906100c69190610d58565b61043e565b005b6100e760048036038101906100e29190610dd8565b6105f9565b005b6100f16106aa565b6040516100fe9190610e65565b60405180910390f35b61010f6106ce565b60405161011c9190610ed9565b60405180910390f35b61013f600480360381019061013a9190610f25565b6106f3565b005b6101496107a4565b6040516101569190610f5f565b60405180910390f35b61017960048036038101906101749190610fa2565b6107aa565b005b6101836108b2565b6040516101909190610fed565b60405180910390f35b6101c6335f357fffffffff00000000000000000000000000000000000000000000000000000000166108d6565b610205576040517f08c379a00000000000000000000000000000000000000000000000000000000081526004016101fc90611060565b60405180910390fd5b5f5f90505b86869050811015610431575f8989838181106102295761022861107e565b5b905060200201602081019061023e9190610fa2565b8888848181106102515761025061107e565b5b90506020020160208101906102669190610fa2565b8787858181106102795761027861107e565b5b905060200281019061028b91906110b7565b60405160200161029e949392919061119a565b6040516020818303038152906040528051906020012090506102e78c8c848181106102cc576102cb61107e565b5b90506020028101906102de91906111d4565b60025484610a0f565b61031d576040517fa88c4dc200000000000000000000000000000000000000000000000000000000815260040160405180910390fd5b7f000000000000000000000000000000000000000000000000000000000000000073ffffffffffffffffffffffffffffffffffffffff1663f6e715d089898581811061036c5761036b61107e565b5b90506020020160208101906103819190610fa2565b8888868181106103945761039361107e565b5b90506020028101906103a691906110b7565b8888888181106103b9576103b861107e565b5b905060200201356040518563ffffffff1660e01b81526004016103df949392919061129a565b5f604051808303815f875af11580156103fa573d5f5f3e3d5ffd5b505050506040513d5f823e3d601f19601f820116820180604052508101906104229190611400565b5050808060010191505061020a565b5050505050505050505050565b5f5f9054906101000a900473ffffffffffffffffffffffffffffffffffffffff1673ffffffffffffffffffffffffffffffffffffffff163373ffffffffffffffffffffffffffffffffffffffff161480610554575060015f9054906101000a900473ffffffffffffffffffffffffffffffffffffffff1673ffffffffffffffffffffffffffffffffffffffff1663b700961333305f357fffffffff00000000000000000000000000000000000000000000000000000000166040518463ffffffff1660e01b815260040161051493929190611481565b602060405180830381865afa15801561052f573d5f5f3e3d5ffd5b505050506040513d601f19601f8201168201806040525081019061055391906114eb565b5b61055c575f5ffd5b8060015f6101000a81548173ffffffffffffffffffffffffffffffffffffffff021916908373ffffffffffffffffffffffffffffffffffffffff1602179055508073ffffffffffffffffffffffffffffffffffffffff163373ffffffffffffffffffffffffffffffffffffffff167fa3396fd7f6e0a21b50e5089d2da70d5ac0a3bbbd1f617a93f134b7638998019860405160405180910390a350565b610626335f357fffffffff00000000000000000000000000000000000000000000000000000000166108d6565b610665576040517f08c379a000000000000000000000000000000000000000000000000000000000815260040161065c90611060565b60405180910390fd5b7fa64e57dba5c71f2feaaa2231a17c9eb77934577a988d9b0cb16b9b636f559bb0848484844260405161069c959493929190611542565b60405180910390a150505050565b5f5f9054906101000a900473ffffffffffffffffffffffffffffffffffffffff1681565b60015f9054906101000a900473ffffffffffffffffffffffffffffffffffffffff1681565b610720335f357fffffffff00000000000000000000000000000000000000000000000000000000166108d6565b61075f576040517f08c379a000000000000000000000000000000000000000000000000000000000815260040161075690611060565b60405180910390fd5b7fd1abc89e8ea27ee905edaf61c8ba84b436de147ceb46432ac06ab009b8b9a78560025482604051610792929190611589565b60405180910390a18060028190555050565b60025481565b6107d7335f357fffffffff00000000000000000000000000000000000000000000000000000000166108d6565b610816576040517f08c379a000000000000000000000000000000000000000000000000000000000815260040161080d90611060565b60405180910390fd5b805f5f6101000a81548173ffffffffffffffffffffffffffffffffffffffff021916908373ffffffffffffffffffffffffffffffffffffffff1602179055508073ffffffffffffffffffffffffffffffffffffffff163373ffffffffffffffffffffffffffffffffffffffff167f8be0079c531659141344cd1fd0a4f28419497f9722a3daafe3b4186f6b6457e060405160405180910390a350565b7f000000000000000000000000000000000000000000000000000000000000000081565b5f5f60015f9054906101000a900473ffffffffffffffffffffffffffffffffffffffff1690505f73ffffffffffffffffffffffffffffffffffffffff168173ffffffffffffffffffffffffffffffffffffffff16141580156109b057508073ffffffffffffffffffffffffffffffffffffffff1663b70096138530866040518463ffffffff1660e01b815260040161097093929190611481565b602060405180830381865afa15801561098b573d5f5f3e3d5ffd5b505050506040513d601f19601f820116820180604052508101906109af91906114eb565b5b80610a0657505f5f9054906101000a900473ffffffffffffffffffffffffffffffffffffffff1673ffffffffffffffffffffffffffffffffffffffff168473ffffffffffffffffffffffffffffffffffffffff16145b91505092915050565b5f8315610a58578360051b8501855b600115610a55578035841160051b8481528135602082185260405f209450602082019150828210610a4f5750610a55565b50610a1e565b50505b8282149050949350505050565b5f604051905090565b5f5ffd5b5f5ffd5b5f5ffd5b5f5ffd5b5f5ffd5b5f5f83601f840112610a9757610a96610a76565b5b8235905067ffffffffffffffff811115610ab457610ab3610a7a565b5b602083019150836020820283011115610ad057610acf610a7e565b5b9250929050565b5f5f83601f840112610aec57610aeb610a76565b5b8235905067ffffffffffffffff811115610b0957610b08610a7a565b5b602083019150836020820283011115610b2557610b24610a7e565b5b9250929050565b5f5f83601f840112610b4157610b40610a76565b5b8235905067ffffffffffffffff811115610b5e57610b5d610a7a565b5b602083019150836020820283011115610b7a57610b79610a7e565b5b9250929050565b5f5f83601f840112610b9657610b95610a76565b5b8235905067ffffffffffffffff811115610bb357610bb2610a7a565b5b602083019150836020820283011115610bcf57610bce610a7e565b5b9250929050565b5f5f5f5f5f5f5f5f5f5f60a08b8d031215610bf457610bf3610a6e565b5b5f8b013567ffffffffffffffff811115610c1157610c10610a72565b5b610c1d8d828e01610a82565b9a509a505060208b013567ffffffffffffffff811115610c4057610c3f610a72565b5b610c4c8d828e01610ad7565b985098505060408b013567ffffffffffffffff811115610c6f57610c6e610a72565b5b610c7b8d828e01610ad7565b965096505060608b013567ffffffffffffffff811115610c9e57610c9d610a72565b5b610caa8d828e01610b2c565b945094505060808b013567ffffffffffffffff811115610ccd57610ccc610a72565b5b610cd98d828e01610b81565b92509250509295989b9194979a5092959850565b5f73ffffffffffffffffffffffffffffffffffffffff82169050919050565b5f610d1682610ced565b9050919050565b5f610d2782610d0c565b9050919050565b610d3781610d1d565b8114610d41575f5ffd5b50565b5f81359050610d5281610d2e565b92915050565b5f60208284031215610d6d57610d6c610a6e565b5b5f610d7a84828501610d44565b91505092915050565b5f5f83601f840112610d9857610d97610a76565b5b8235905067ffffffffffffffff811115610db557610db4610a7a565b5b602083019150836001820283011115610dd157610dd0610a7e565b5b9250929050565b5f5f5f5f60408587031215610df057610def610a6e565b5b5f85013567ffffffffffffffff811115610e0d57610e0c610a72565b5b610e1987828801610d83565b9450945050602085013567ffffffffffffffff811115610e3c57610e3b610a72565b5b610e4887828801610d83565b925092505092959194509250565b610e5f81610d0c565b82525050565b5f602082019050610e785f830184610e56565b92915050565b5f819050919050565b5f610ea1610e9c610e9784610ced565b610e7e565b610ced565b9050919050565b5f610eb282610e87565b9050919050565b5f610ec382610ea8565b9050919050565b610ed381610eb9565b82525050565b5f602082019050610eec5f830184610eca565b92915050565b5f819050919050565b610f0481610ef2565b8114610f0e575f5ffd5b50565b5f81359050610f1f81610efb565b92915050565b5f60208284031215610f3a57610f39610a6e565b5b5f610f4784828501610f11565b91505092915050565b610f5981610ef2565b82525050565b5f602082019050610f725f830184610f50565b92915050565b610f8181610d0c565b8114610f8b575f5ffd5b50565b5f81359050610f9c81610f78565b92915050565b5f60208284031215610fb757610fb6610a6e565b5b5f610fc484828501610f8e565b91505092915050565b5f610fd782610ea8565b9050919050565b610fe781610fcd565b82525050565b5f6020820190506110005f830184610fde565b92915050565b5f82825260208201905092915050565b7f554e415554484f52495a454400000000000000000000000000000000000000005f82015250565b5f61104a600c83611006565b915061105582611016565b602082019050919050565b5f6020820190508181035f8301526110778161103e565b9050919050565b7f4e487b71000000000000000000000000000000000000000000000000000000005f52603260045260245ffd5b5f5ffd5b5f5ffd5b5f5ffd5b5f5f833560016020038436030381126110d3576110d26110ab565b5b80840192508235915067ffffffffffffffff8211156110f5576110f46110af565b5b602083019250600182023603831315611111576111106110b3565b5b509250929050565b5f8160601b9050919050565b5f61112f82611119565b9050919050565b5f61114082611125565b9050919050565b61115861115382610d0c565b611136565b82525050565b5f81905092915050565b828183375f83830152505050565b5f611181838561115e565b935061118e838584611168565b82840190509392505050565b5f6111a58287611147565b6014820191506111b58286611147565b6014820191506111c6828486611176565b915081905095945050505050565b5f5f833560016020038436030381126111f0576111ef6110ab565b5b80840192508235915067ffffffffffffffff821115611212576112116110af565b5b60208301925060208202360383131561122e5761122d6110b3565b5b509250929050565b5f82825260208201905092915050565b5f601f19601f8301169050919050565b5f6112618385611236565b935061126e838584611168565b61127783611246565b840190509392505050565b5f819050919050565b61129481611282565b82525050565b5f6060820190506112ad5f830187610e56565b81810360208301526112c0818587611256565b90506112cf604083018461128b565b95945050505050565b5f5ffd5b7f4e487b71000000000000000000000000000000000000000000000000000000005f52604160045260245ffd5b61131282611246565b810181811067ffffffffffffffff82111715611331576113306112dc565b5b80604052505050565b5f611343610a65565b905061134f8282611309565b919050565b5f67ffffffffffffffff82111561136e5761136d6112dc565b5b61137782611246565b9050602081019050919050565b8281835e5f83830152505050565b5f6113a461139f84611354565b61133a565b9050828152602081018484840111156113c0576113bf6112d8565b5b6113cb848285611384565b509392505050565b5f82601f8301126113e7576113e6610a76565b5b81516113f7848260208601611392565b91505092915050565b5f6020828403121561141557611414610a6e565b5b5f82015167ffffffffffffffff81111561143257611431610a72565b5b61143e848285016113d3565b91505092915050565b5f7fffffffff0000000000000000000000000000000000000000000000000000000082169050919050565b61147b81611447565b82525050565b5f6060820190506114945f830186610e56565b6114a16020830185610e56565b6114ae6040830184611472565b949350505050565b5f8115159050919050565b6114ca816114b6565b81146114d4575f5ffd5b50565b5f815190506114e5816114c1565b92915050565b5f60208284031215611500576114ff610a6e565b5b5f61150d848285016114d7565b91505092915050565b5f6115218385611006565b935061152e838584611168565b61153783611246565b840190509392505050565b5f6060820190508181035f83015261155b818789611516565b90508181036020830152611570818587611516565b905061157f604083018461128b565b9695505050505050565b5f60408201905061159c5f830185610f50565b6115a96020830184610f50565b939250505056fea264697066735822122034b74eb7753d6779be52bca929de3036cdfcf98f2e1d4800a7438b8552ca597364736f6c63430008210033","linkReferences":{}},"methodIdentifiers":{"authority()":"bf7e214f","manageRoot()":"ed6ee6bb","manageVaultWithMerkleVerification(bytes32[][],address[],address[],bytes[],uint256[])":"244b0f6a","owner()":"8da5cb5b","pulse(string,string)":"7dd16f59","setAuthority(address)":"7a9e5e4b","setManageRoot(bytes32)":"d0e22942","transferOwnership(address)":"f2fde38b","vault()":"fbfa77cf"},"id":24}