{"abi":[{"type":"constructor","inputs":[{"name":"_vault","type":"address","internalType":"address"}],"stateMutability":"nonpayable"},{"type":"function","name":"BRIDGE","inputs":[],"outputs":[{"name":"","type":"address","internalType":"address"}],"stateMutability":"view"},{"type":"function","name":"vault","inputs":[],"outputs":[{"name":"","type":"address","internalType":"address"}],"stateMutability":"view"},{"type":"function","name":"verify","inputs":[{"name":"target","type":"address","internalType":"address"},{"name":"data","type":"bytes","internalType":"bytes"}],"outputs":[],"stateMutability":"view"},{"type":"error","name":"BridgeDecoder__InvalidTarget","inputs":[]}],"bytecode":{"object":"0x60a060405234801561000f575f5ffd5b506040516103df3803806103df833981810160405281019061003191906100c9565b8073ffffffffffffffffffffffffffffffffffffffff1660808173ffffffffffffffffffffffffffffffffffffffff1681525050506100f4565b5f5ffd5b5f73ffffffffffffffffffffffffffffffffffffffff82169050919050565b5f6100988261006f565b9050919050565b6100a88161008e565b81146100b2575f5ffd5b50565b5f815190506100c38161009f565b92915050565b5f602082840312156100de576100dd61006b565b5b5f6100eb848285016100b5565b91505092915050565b6080516102d361010c5f395f61013301526102d35ff3fe608060405234801561000f575f5ffd5b506004361061003f575f3560e01c80634a41d1ac14610043578063ee9a31a21461005f578063fbfa77cf1461007d575b5f5ffd5b61005d60048036038101906100589190610218565b61009b565b005b610067610119565b6040516100749190610284565b60405180910390f35b610085610131565b6040516100929190610284565b60405180910390f35b73420000000000000000000000000000000000001073ffffffffffffffffffffffffffffffffffffffff168373ffffffffffffffffffffffffffffffffffffffff1614610114576040517fa5d5a67c00000000000000000000000000000000000000000000000000000000815260040160405180910390fd5b505050565b73420000000000000000000000000000000000001081565b7f000000000000000000000000000000000000000000000000000000000000000081565b5f5ffd5b5f5ffd5b5f73ffffffffffffffffffffffffffffffffffffffff82169050919050565b5f6101868261015d565b9050919050565b6101968161017c565b81146101a0575f5ffd5b50565b5f813590506101b18161018d565b92915050565b5f5ffd5b5f5ffd5b5f5ffd5b5f5f83601f8401126101d8576101d76101b7565b5b8235905067ffffffffffffffff8111156101f5576101f46101bb565b5b602083019150836001820283011115610211576102106101bf565b5b9250929050565b5f5f5f6040848603121561022f5761022e610155565b5b5f61023c868287016101a3565b935050602084013567ffffffffffffffff81111561025d5761025c610159565b5b610269868287016101c3565b92509250509250925092565b61027e8161017c565b82525050565b5f6020820190506102975f830184610275565b9291505056fea2646970667358221220d33d8037ae139ce20b21f8fa6281c02ab3b1e8560d1d94212990e3a0f079a61164736f6c63430008210033","linkReferences":{}},"methodIdentifiers":{"BRIDGE()":"ee9a31a2","vault()":"fbfa77cf","verify(address,bytes)":"4a41d1ac"},"id":35}