{"abi":[{"type":"constructor","inputs":[{"name":"_main","type":"address","internalType":"address"},{"name":"_test","type":"address","internalType":"address"}],"stateMutability":"nonpayable"},{"type":"function","name":"PARTNER_MAIN","inputs":[],"outputs":[{"name":"","type":"address","internalType":"address"}],"stateMutability":"view"},{"type":"function","name":"PARTNER_TEST","inputs":[],"outputs":[{"name":"","type":"address","internalType":"address"}],"stateMutability":"view"},{"type":"function","name":"claimFees","inputs":[{"name":"asset","type":"address","internalType":"contract ERC20"}],"outputs":[],"stateMutability":"nonpayable"}],"bytecode":{"object":"0x60c060405234801561000f575f5ffd5b506040516106cc3803806106cc833981810160405281019061003191906100fe565b8173ffffffffffffffffffffffffffffffffffffffff1660808173ffffffffffffffffffffffffffffffffffffffff16815250508073ffffffffffffffffffffffffffffffffffffffff1660a08173ffffffffffffffffffffffffffffffffffffffff1681525050505061013c565b5f5ffd5b5f73ffffffffffffffffffffffffffffffffffffffff82169050919050565b5f6100cd826100a4565b9050919050565b6100dd816100c3565b81146100e7575f5ffd5b50565b5f815190506100f8816100d4565b92915050565b5f5f60408385031215610114576101136100a0565b5b5f610121858286016100ea565b9250506020610132858286016100ea565b9150509250929050565b60805160a05161056261016a5f395f818161019a015261025e01525f8181609d015261014f01526105625ff3fe608060405234801561000f575f5ffd5b506004361061003f575f3560e01c80630c2cd52a1461004357806315a0ea6a14610061578063f0be75321461007d575b5f5ffd5b61004b61009b565b6040516100589190610376565b60405180910390f35b61007b600480360381019061007691906103ce565b6100bf565b005b61008561025c565b6040516100929190610376565b60405180910390f35b7f000000000000000000000000000000000000000000000000000000000000000081565b5f8173ffffffffffffffffffffffffffffffffffffffff166370a08231306040518263ffffffff1660e01b81526004016100f99190610376565b602060405180830381865afa158015610114573d5f5f3e3d5ffd5b505050506040513d601f19601f82011682018060405250810190610138919061042c565b90505f6002826101489190610484565b90506101957f0000000000000000000000000000000000000000000000000000000000000000828573ffffffffffffffffffffffffffffffffffffffff166102809092919063ffffffff16565b6102577f00000000000000000000000000000000000000000000000000000000000000008473ffffffffffffffffffffffffffffffffffffffff166370a08231306040518263ffffffff1660e01b81526004016101f29190610376565b602060405180830381865afa15801561020d573d5f5f3e3d5ffd5b505050506040513d601f19601f82011682018060405250810190610231919061042c565b8573ffffffffffffffffffffffffffffffffffffffff166102809092919063ffffffff16565b505050565b7f000000000000000000000000000000000000000000000000000000000000000081565b5f6040517fa9059cbb00000000000000000000000000000000000000000000000000000000815273ffffffffffffffffffffffffffffffffffffffff8416600482015282602482015260205f6044835f895af1915081601f3d1160015f5114161516156102f0573d853b15171591505b5080610331576040517f08c379a00000000000000000000000000000000000000000000000000000000081526004016103289061050e565b60405180910390fd5b50505050565b5f73ffffffffffffffffffffffffffffffffffffffff82169050919050565b5f61036082610337565b9050919050565b61037081610356565b82525050565b5f6020820190506103895f830184610367565b92915050565b5f5ffd5b5f61039d82610356565b9050919050565b6103ad81610393565b81146103b7575f5ffd5b50565b5f813590506103c8816103a4565b92915050565b5f602082840312156103e3576103e261038f565b5b5f6103f0848285016103ba565b91505092915050565b5f819050919050565b61040b816103f9565b8114610415575f5ffd5b50565b5f8151905061042681610402565b92915050565b5f602082840312156104415761044061038f565b5b5f61044e84828501610418565b91505092915050565b7f4e487b71000000000000000000000000000000000000000000000000000000005f52601260045260245ffd5b5f61048e826103f9565b9150610499836103f9565b9250826104a9576104a8610457565b5b828204905092915050565b5f82825260208201905092915050565b7f5452414e534645525f4641494c454400000000000000000000000000000000005f82015250565b5f6104f8600f836104b4565b9150610503826104c4565b602082019050919050565b5f6020820190508181035f830152610525816104ec565b905091905056fea26469706673582212202383e59d48cb87466711ba0edf516ab1df6f67be85776239dcbe038a5d1e5d3964736f6c63430008210033","linkReferences":{}},"methodIdentifiers":{"PARTNER_MAIN()":"0c2cd52a","PARTNER_TEST()":"f0be7532","claimFees(address)":"15a0ea6a"},"id":25}